Component: ARM Compiler 5.06 update 6 (build 750) Tool: armlink [4d35ed]

==============================================================================

Section Cross References

    startup_stm32l071xx.o(STACK) refers (Special) to heapauxi.o(.text) for __use_two_region_memory
    startup_stm32l071xx.o(HEAP) refers (Special) to heapauxi.o(.text) for __use_two_region_memory
    startup_stm32l071xx.o(RESET) refers (Special) to heapauxi.o(.text) for __use_two_region_memory
    startup_stm32l071xx.o(RESET) refers to startup_stm32l071xx.o(STACK) for __initial_sp
    startup_stm32l071xx.o(RESET) refers to startup_stm32l071xx.o(.text) for Reset_Handler
    startup_stm32l071xx.o(RESET) refers to stm32l0xx_it.o(i.NMI_Handler) for NMI_Handler
    startup_stm32l071xx.o(RESET) refers to stm32l0xx_it.o(i.HardFault_Handler) for HardFault_Handler
    startup_stm32l071xx.o(RESET) refers to stm32l0xx_it.o(i.SVC_Handler) for SVC_Handler
    startup_stm32l071xx.o(RESET) refers to stm32l0xx_it.o(i.PendSV_Handler) for PendSV_Handler
    startup_stm32l071xx.o(RESET) refers to stm32l0xx_it.o(i.SysTick_Handler) for SysTick_Handler
    startup_stm32l071xx.o(RESET) refers to stm32l0xx_it.o(i.DMA1_Channel2_3_IRQHandler) for DMA1_Channel2_3_IRQHandler
    startup_stm32l071xx.o(RESET) refers to stm32l0xx_it.o(i.USART4_5_IRQHandler) for USART4_5_IRQHandler
    startup_stm32l071xx.o(RESET) refers to stm32l0xx_it.o(i.TIM2_IRQHandler) for TIM2_IRQHandler
    startup_stm32l071xx.o(RESET) refers to stm32l0xx_it.o(i.USART1_IRQHandler) for USART1_IRQHandler
    startup_stm32l071xx.o(RESET) refers to stm32l0xx_it.o(i.LPUART1_IRQHandler) for LPUART1_IRQHandler
    startup_stm32l071xx.o(.text) refers (Special) to heapauxi.o(.text) for __use_two_region_memory
    startup_stm32l071xx.o(.text) refers to system_stm32l0xx.o(i.SystemInit) for SystemInit
    startup_stm32l071xx.o(.text) refers to __main.o(!!!main) for __main
==============================================================================

Removing Unused input sections from the image.

    Removing internal_flash.o(.rev16_text), (4 bytes).
    Removing internal_flash.o(.revsh_text), (4 bytes).
    Removing internal_flash.o(i.flash_erase_all), (100 bytes).
    Removing tiny_sscanf.o(i.tiny_sscanf), (20 bytes).
    Removing tiny_sscanf.o(i.tiny_vfscanf), (596 bytes).
    Removing main.o(.rev16_text), (4 bytes).
    Removing main.o(.revsh_text), (4 bytes).
    Removing main.o(i.fgetc), (28 bytes).
    Removing main.o(i.fputc), (28 bytes).
    Removing main.o(.data), (4 bytes).
    Removing main.o(.data), (4 bytes).
    Removing gpio.o(.rev16_text), (4 bytes).
    Removing gpio.o(.revsh_text), (4 bytes).
    Removing dma.o(.rev16_text), (4 bytes).
    Removing dma.o(.revsh_text), (4 bytes).
    Removing i2c.o(.rev16_text), (4 bytes).
    Removing i2c.o(.revsh_text), (4 bytes).
    Removing i2c.o(i.HAL_I2C_MspDeInit), (56 bytes).
==============================================================================

Image Symbol Table

    Local Symbols

    Symbol Name                              Value     Ov Type        Size  Object(Section)

    ../Core/Src/dma.c                        0x00000000   Number         0  dma.o ABSOLUTE
    ../Core/Src/gpio.c                       0x00000000   Number         0  gpio.o ABSOLUTE
    ../Core/Src/i2c.c                        0x00000000   Number         0  i2c.o ABSOLUTE
    ../Core/Src/iwdg.c                       0x00000000   Number         0  iwdg.o ABSOLUTE
    ../Core/Src/main.c                       0x00000000   Number         0  main.o ABSOLUTE
    ../Core/Src/spi.c                        0x00000000   Number         0  spi.o ABSOLUTE
    ../Core/Src/stm32l0xx_hal_msp.c          0x00000000   Number         0  stm32l0xx_hal_msp.o ABSOLUTE
    ../Core/Src/stm32l0xx_it.c               0x00000000   Number         0  stm32l0xx_it.o ABSOLUTE
    ../Core/Src/system_stm32l0xx.c           0x00000000   Number         0  system_stm32l0xx.o ABSOLUTE
    ../Core/Src/tim.c                        0x00000000   Number         0  tim.o ABSOLUTE
    ../Core/Src/usart.c                      0x00000000   Number         0  usart.o ABSOLUTE
    ../Drivers/STM32L0xx_HAL_Driver/Src/stm32l0xx_hal.c 0x00000000   Number         0  stm32l0xx_hal.o ABSOLUTE
    ../Drivers/STM32L0xx_HAL_Driver/Src/stm32l0xx_hal_cortex.c 0x00000000   Number         0  stm32l0xx_hal_cortex.o ABSOLUTE
    ../Drivers/STM32L0xx_HAL_Driver/Src/stm32l0xx_hal_dma.c 0x00000000   Number         0  stm32l0xx_hal_dma.o ABSOLUTE
    ../Drivers/STM32L0xx_HAL_Driver/Src/stm32l0xx_hal_exti.c 0x00000000   Number         0  stm32l0xx_hal_exti.o ABSOLUTE
    ../Drivers/STM32L0xx_HAL_Driver/Src/stm32l0xx_hal_flash.c 0x00000000   Number         0  stm32l0xx_hal_flash.o ABSOLUTE
    ../Drivers/STM32L0xx_HAL_Driver/Src/stm32l0xx_hal_flash_ex.c 0x00000000   Number         0  stm32l0xx_hal_flash_ex.o ABSOLUTE
    ../Drivers/STM32L0xx_HAL_Driver/Src/stm32l0xx_hal_flash_ramfunc.c 0x00000000   Number         0  stm32l0xx_hal_flash_ramfunc.o ABSOLUTE
    ../Drivers/STM32L0xx_HAL_Driver/Src/stm32l0xx_hal_gpio.c 0x00000000   Number         0  stm32l0xx_hal_gpio.o ABSOLUTE
    ../Drivers/STM32L0xx_HAL_Driver/Src/stm32l0xx_hal_i2c.c 0x00000000   Number         0  stm32l0xx_hal_i2c.o ABSOLUTE
    ../Drivers/STM32L0xx_HAL_Driver/Src/stm32l0xx_hal_i2c_ex.c 0x00000000   Number         0  stm32l0xx_hal_i2c_ex.o ABSOLUTE
    ../Drivers/STM32L0xx_HAL_Driver/Src/stm32l0xx_hal_iwdg.c 0x00000000   Number         0  stm32l0xx_hal_iwdg.o ABSOLUTE
    ../Drivers/STM32L0xx_HAL_Driver/Src/stm32l0xx_hal_pwr.c 0x00000000   Number         0  stm32l0xx_hal_pwr.o ABSOLUTE
    ../Drivers/STM32L0xx_HAL_Driver/Src/stm32l0xx_hal_pwr_ex.c 0x00000000   Number         0  stm32l0xx_hal_pwr_ex.o ABSOLUTE
    ../Drivers/STM32L0xx_HAL_Driver/Src/stm32l0xx_hal_rcc.c 0x00000000   Number         0  stm32l0xx_hal_rcc.o ABSOLUTE
    ../Drivers/STM32L0xx_HAL_Driver/Src/stm32l0xx_hal_rcc_ex.c 0x00000000   Number         0  stm32l0xx_hal_rcc_ex.o ABSOLUTE
    ../Drivers/STM32L0xx_HAL_Driver/Src/stm32l0xx_hal_spi.c 0x00000000   Number         0  stm32l0xx_hal_spi.o ABSOLUTE
    ../Drivers/STM32L0xx_HAL_Driver/Src/stm32l0xx_hal_tim.c 0x00000000   Number         0  stm32l0xx_hal_tim.o ABSOLUTE
    ../Drivers/STM32L0xx_HAL_Driver/Src/stm32l0xx_hal_tim_ex.c 0x00000000   Number         0  stm32l0xx_hal_tim_ex.o ABSOLUTE
    ../Drivers/STM32L0xx_HAL_Driver/Src/stm32l0xx_hal_uart.c 0x00000000   Number         0  stm32l0xx_hal_uart.o ABSOLUTE
    ../Drivers/STM32L0xx_HAL_Driver/Src/stm32l0xx_hal_uart_ex.c 0x00000000   Number         0  stm32l0xx_hal_uart_ex.o ABSOLUTE
    ../clib/../cmprslib/zerorunl2.c          0x00000000   Number         0  __dczerorl2.o ABSOLUTE
    ../clib/angel/boardlib.s                 0x00000000   Number         0  boardshut.o ABSOLUTE
    ../clib/angel/boardlib.s                 0x00000000   Number         0  boardinit3.o ABSOLUTE
    ../clib/angel/boardlib.s                 0x00000000   Number         0  boardinit2.o ABSOLUTE
    ../clib/angel/boardlib.s                 0x00000000   Number         0  boardinit1.o ABSOLUTE
    ../clib/angel/handlers.s                 0x00000000   Number         0  __scatter_zi.o ABSOLUTE
    ../clib/angel/kernel.s                   0x00000000   Number         0  rtexit2.o ABSOLUTE
    ../clib/angel/kernel.s                   0x00000000   Number         0  __rtentry.o ABSOLUTE
    ../clib/angel/kernel.s                   0x00000000   Number         0  __rtentry2.o ABSOLUTE
    ../clib/angel/kernel.s                   0x00000000   Number         0  rtexit.o ABSOLUTE
    ../clib/angel/kernel.s                   0x00000000   Number         0  __rtentry4.o ABSOLUTE
    ../clib/angel/rt.s                       0x00000000   Number         0  aeabi_ldiv0_sigfpe.o ABSOLUTE
    ../clib/angel/rt.s                       0x00000000   Number         0  rt_raise.o ABSOLUTE
    ../clib/angel/rt.s                       0x00000000   Number         0  aeabi_ldiv0.o ABSOLUTE
    ../clib/angel/rt.s                       0x00000000   Number         0  rt_div0.o ABSOLUTE
    ../clib/angel/rt.s                       0x00000000   Number         0  aeabi_idiv0_sigfpe.o ABSOLUTE
    ../clib/angel/rt.s                       0x00000000   Number         0  aeabi_idiv0.o ABSOLUTE
    ../clib/angel/scatterp.s                 0x00000000   Number         0  __scatter.o ABSOLUTE
    ../clib/angel/startup.s                  0x00000000   Number         0  __main.o ABSOLUTE
    ../clib/angel/sys.s                      0x00000000   Number         0  use_no_semi.o ABSOLUTE
    ../clib/angel/sys.s                      0x00000000   Number         0  sys_stackheap_outer.o ABSOLUTE
    ../clib/angel/sys.s                      0x00000000   Number         0  use_no_semi_2.o ABSOLUTE
    ../clib/angel/sys.s                      0x00000000   Number         0  libspace.o ABSOLUTE
    ../clib/angel/sys.s                      0x00000000   Number         0  tempstk.o ABSOLUTE
    ../clib/angel/sys.s                      0x00000000   Number         0  indicate_semi.o ABSOLUTE
    ../clib/angel/sysapp.c                   0x00000000   Number         0  sys_wrch.o ABSOLUTE
    ../clib/angel/sysapp.c                   0x00000000   Number         0  sys_command.o ABSOLUTE
    ../clib/armsys.c                         0x00000000   Number         0  _get_argv_nomalloc.o ABSOLUTE
    ../clib/armsys.c                         0x00000000   Number         0  no_argv.o ABSOLUTE
    ../clib/armsys.c                         0x00000000   Number         0  argv_veneer.o ABSOLUTE
    ../clib/division.c                       0x00000000   Number         0  lludiv.o ABSOLUTE
    ../clib/division.s                       0x00000000   Number         0  aeabi_sdiv_div0.o ABSOLUTE
    ../clib/division.s                       0x00000000   Number         0  aeabi_sdiv.o ABSOLUTE
    ../clib/heapalloc.c                      0x00000000   Number         0  hrguard.o ABSOLUTE
    ../clib/heapaux.c                        0x00000000   Number         0  heapauxi.o ABSOLUTE
    ../clib/libinit.s                        0x00000000   Number         0  libinit2.o ABSOLUTE
    ../clib/libinit.s                        0x00000000   Number         0  libinit.o ABSOLUTE
    ../clib/libinit.s                        0x00000000   Number         0  libshutdown2.o ABSOLUTE
    ../clib/libinit.s                        0x00000000   Number         0  libshutdown.o ABSOLUTE
    ../clib/longlong.c                       0x00000000   Number         0  llmul.o ABSOLUTE
    ../clib/memcpset.c                       0x00000000   Number         0  rt_memclr.o ABSOLUTE
    ../clib/signal.c                         0x00000000   Number         0  defsig_fpe_inner.o ABSOLUTE
    ../clib/signal.c                         0x00000000   Number         0  defsig_exit.o ABSOLUTE
    ../clib/signal.c                         0x00000000   Number         0  defsig_fpe_formal.o ABSOLUTE
    ../clib/signal.c                         0x00000000   Number         0  defsig_other.o ABSOLUTE
    ../clib/signal.c                         0x00000000   Number         0  defsig_segv_inner.o ABSOLUTE
    ../clib/signal.c                         0x00000000   Number         0  defsig_cppl_inner.o ABSOLUTE
    ../clib/signal.c                         0x00000000   Number         0  defsig_pvfn_inner.o ABSOLUTE
    ../clib/signal.c                         0x00000000   Number         0  defsig_stak_inner.o ABSOLUTE
    ../clib/signal.c                         0x00000000   Number         0  defsig_rtmem_formal.o ABSOLUTE
    ../clib/signal.c                         0x00000000   Number         0  defsig_rtmem_outer.o ABSOLUTE
    ../clib/signal.c                         0x00000000   Number         0  defsig_fpe_outer.o ABSOLUTE
    ../clib/signal.c                         0x00000000   Number         0  defsig_rtmem_inner.o ABSOLUTE
    ../clib/signal.c                         0x00000000   Number         0  defsig_rtred_inner.o ABSOLUTE
    ../clib/signal.c                         0x00000000   Number         0  defsig_abrt_inner.o ABSOLUTE
    ../clib/signal.c                         0x00000000   Number         0  defsig_general.o ABSOLUTE
    ../clib/signal.c                         0x00000000   Number         0  __raise.o ABSOLUTE
    ../clib/signal.s                         0x00000000   Number         0  defsig.o ABSOLUTE
    ../clib/stdlib.c                         0x00000000   Number         0  exit.o ABSOLUTE
    ../clib/string.c                         0x00000000   Number         0  strcmp.o ABSOLUTE
    ../clib/string.c                         0x00000000   Number         0  strlen.o ABSOLUTE
    ../clib/string.c                         0x00000000   Number         0  strspn.o ABSOLUTE
    ../clib/string.c                         0x00000000   Number         0  strcspn.o ABSOLUTE
    ../fplib/cfplib/fpinit.c                 0x00000000   Number         0  fpinit.o ABSOLUTE
    ..\Core\Src\dma.c                        0x00000000   Number         0  dma.o ABSOLUTE
    ..\Core\Src\gpio.c                       0x00000000   Number         0  gpio.o ABSOLUTE
    ..\Core\Src\i2c.c                        0x00000000   Number         0  i2c.o ABSOLUTE
    ..\Core\Src\internal_flash.c             0x00000000   Number         0  internal_flash.o ABSOLUTE
    ..\Core\Src\iwdg.c                       0x00000000   Number         0  iwdg.o ABSOLUTE
    ..\Core\Src\main.c                       0x00000000   Number         0  main.o ABSOLUTE
    ..\Core\Src\spi.c                        0x00000000   Number         0  spi.o ABSOLUTE
    ..\Core\Src\stm32l0xx_hal_msp.c          0x00000000   Number         0  stm32l0xx_hal_msp.o ABSOLUTE
    ..\Core\Src\stm32l0xx_it.c               0x00000000   Number         0  stm32l0xx_it.o ABSOLUTE
    ..\Core\Src\system_stm32l0xx.c           0x00000000   Number         0  system_stm32l0xx.o ABSOLUTE
    ..\Core\Src\tim.c                        0x00000000   Number         0  tim.o ABSOLUTE
    ..\Core\Src\tiny_sscanf.c                0x00000000   Number         0  tiny_sscanf.o ABSOLUTE
    ..\Core\Src\tiny_vsnprintf.c             0x00000000   Number         0  tiny_vsnprintf.o ABSOLUTE
    ..\Core\Src\usart.c                      0x00000000   Number         0  usart.o ABSOLUTE
    ..\Drivers\STM32L0xx_HAL_Driver\Src\stm32l0xx_hal.c 0x00000000   Number         0  stm32l0xx_hal.o ABSOLUTE
    ..\Drivers\STM32L0xx_HAL_Driver\Src\stm32l0xx_hal_cortex.c 0x00000000   Number         0  stm32l0xx_hal_cortex.o ABSOLUTE
    ..\Drivers\STM32L0xx_HAL_Driver\Src\stm32l0xx_hal_dma.c 0x00000000   Number         0  stm32l0xx_hal_dma.o ABSOLUTE
    ..\Drivers\STM32L0xx_HAL_Driver\Src\stm32l0xx_hal_exti.c 0x00000000   Number         0  stm32l0xx_hal_exti.o ABSOLUTE
    ..\Drivers\STM32L0xx_HAL_Driver\Src\stm32l0xx_hal_flash.c 0x00000000   Number         0  stm32l0xx_hal_flash.o ABSOLUTE
    ..\Drivers\STM32L0xx_HAL_Driver\Src\stm32l0xx_hal_flash_ex.c 0x00000000   Number         0  stm32l0xx_hal_flash_ex.o ABSOLUTE
    ..\Drivers\STM32L0xx_HAL_Driver\Src\stm32l0xx_hal_flash_ramfunc.c 0x00000000   Number         0  stm32l0xx_hal_flash_ramfunc.o ABSOLUTE
    ..\Drivers\STM32L0xx_HAL_Driver\Src\stm32l0xx_hal_gpio.c 0x00000000   Number         0  stm32l0xx_hal_gpio.o ABSOLUTE
    ..\Drivers\STM32L0xx_HAL_Driver\Src\stm32l0xx_hal_i2c.c 0x00000000   Number         0  stm32l0xx_hal_i2c.o ABSOLUTE
    ..\Drivers\STM32L0xx_HAL_Driver\Src\stm32l0xx_hal_i2c_ex.c 0x00000000   Number         0  stm32l0xx_hal_i2c_ex.o ABSOLUTE
    ..\Drivers\STM32L0xx_HAL_Driver\Src\stm32l0xx_hal_iwdg.c 0x00000000   Number         0  stm32l0xx_hal_iwdg.o ABSOLUTE
    ..\Drivers\STM32L0xx_HAL_Driver\Src\stm32l0xx_hal_pwr.c 0x00000000   Number         0  stm32l0xx_hal_pwr.o ABSOLUTE
    ..\Drivers\STM32L0xx_HAL_Driver\Src\stm32l0xx_hal_pwr_ex.c 0x00000000   Number         0  stm32l0xx_hal_pwr_ex.o ABSOLUTE
    ..\Drivers\STM32L0xx_HAL_Driver\Src\stm32l0xx_hal_rcc.c 0x00000000   Number         0  stm32l0xx_hal_rcc.o ABSOLUTE
    ..\Drivers\STM32L0xx_HAL_Driver\Src\stm32l0xx_hal_rcc_ex.c 0x00000000   Number         0  stm32l0xx_hal_rcc_ex.o ABSOLUTE
    ..\Drivers\STM32L0xx_HAL_Driver\Src\stm32l0xx_hal_spi.c 0x00000000   Number         0  stm32l0xx_hal_spi.o ABSOLUTE
    ..\Drivers\STM32L0xx_HAL_Driver\Src\stm32l0xx_hal_tim.c 0x00000000   Number         0  stm32l0xx_hal_tim.o ABSOLUTE
    ..\Drivers\STM32L0xx_HAL_Driver\Src\stm32l0xx_hal_tim_ex.c 0x00000000   Number         0  stm32l0xx_hal_tim_ex.o ABSOLUTE
    ..\Drivers\STM32L0xx_HAL_Driver\Src\stm32l0xx_hal_uart.c 0x00000000   Number         0  stm32l0xx_hal_uart.o ABSOLUTE
    ..\Drivers\STM32L0xx_HAL_Driver\Src\stm32l0xx_hal_uart_ex.c 0x00000000   Number         0  stm32l0xx_hal_uart_ex.o ABSOLUTE
    ..\SHELL\UsartShell.c                    0x00000000   Number         0  usartshell.o ABSOLUTE
    ..\SHELL\app_cli.c                       0x00000000   Number         0  app_cli.o ABSOLUTE
    ..\SHELL\cli_led.c                       0x00000000   Number         0  cli_led.o ABSOLUTE
    ..\SHELL\shell.c                         0x00000000   Number         0  shell.o ABSOLUTE
    ..\\Core\\Src\\internal_flash.c          0x00000000   Number         0  internal_flash.o ABSOLUTE
    ..\\SHELL\\UsartShell.c                  0x00000000   Number         0  usartshell.o ABSOLUTE
    ..\\SHELL\\app_cli.c                     0x00000000   Number         0  app_cli.o ABSOLUTE
    ..\\SHELL\\cli_led.c                     0x00000000   Number         0  cli_led.o ABSOLUTE
    ..\\common\\cli_process.c                0x00000000   Number         0  cli_process.o ABSOLUTE
    ..\\common\\internal_flash_test.c        0x00000000   Number         0  internal_flash_test.o ABSOLUTE
    ..\\common\\modbus_test.c                0x00000000   Number         0  modbus_test.o ABSOLUTE
    ..\common\cli_process.c                  0x00000000   Number         0  cli_process.o ABSOLUTE
    ..\common\internal_flash_test.c          0x00000000   Number         0  internal_flash_test.o ABSOLUTE
    ..\common\modbus_test.c                  0x00000000   Number         0  modbus_test.o ABSOLUTE
    dc.s                                     0x00000000   Number         0  dc.o ABSOLUTE
    startup_stm32l071xx.s                    0x00000000   Number         0  startup_stm32l071xx.o ABSOLUTE
    RESET                                    0x08000000   Section      192  startup_stm32l071xx.o(RESET)
    !!!main                                  0x080000c0   Section        8  __main.o(!!!main)
    !!!scatter                               0x080000c8   Section       60  __scatter.o(!!!scatter)
    !!handler_zi                             0x08000104   Section       28  __scatter_zi.o(!!handler_zi)
    .ARM.Collect$$libinit$$00000000          0x08000120   Section        2  libinit.o(.ARM.Collect$$libinit$$00000000)
    .ARM.Collect$$libinit$$00000002          0x08000122   Section        0  libinit2.o(.ARM.Collect$$libinit$$00000002)
    .ARM.Collect$$libinit$$00000004          0x08000122   Section        0  libinit2.o(.ARM.Collect$$libinit$$00000004)
    .ARM.Collect$$libinit$$0000000A          0x08000122   Section        0  libinit2.o(.ARM.Collect$$libinit$$0000000A)
    .ARM.Collect$$libinit$$0000000C          0x08000122   Section        0  libinit2.o(.ARM.Collect$$libinit$$0000000C)
    .ARM.Collect$$libinit$$0000000E          0x08000122   Section        0  libinit2.o(.ARM.Collect$$libinit$$0000000E)
    .ARM.Collect$$libinit$$00000011          0x08000122   Section        0  libinit2.o(.ARM.Collect$$libinit$$00000011)
    .ARM.Collect$$libinit$$00000013          0x08000122   Section        0  libinit2.o(.ARM.Collect$$libinit$$00000013)
    .ARM.Collect$$libinit$$00000015          0x08000122   Section        0  libinit2.o(.ARM.Collect$$libinit$$00000015)
    .ARM.Collect$$libinit$$00000017          0x08000122   Section        0  libinit2.o(.ARM.Collect$$libinit$$00000017)
    .ARM.Collect$$libinit$$00000019          0x08000122   Section        0  libinit2.o(.ARM.Collect$$libinit$$00000019)
    .ARM.Collect$$libinit$$0000001B          0x08000122   Section        0  libinit2.o(.ARM.Collect$$libinit$$0000001B)
    .ARM.Collect$$libinit$$0000001D          0x08000122   Section        0  libinit2.o(.ARM.Collect$$libinit$$0000001D)
    .ARM.Collect$$libinit$$0000001F          0x08000122   Section        0  libinit2.o(.ARM.Collect$$libinit$$0000001F)
    .ARM.Collect$$libinit$$00000021          0x08000122   Section        0  libinit2.o(.ARM.Collect$$libinit$$00000021)
    .ARM.Collect$$libinit$$00000023          0x08000122   Section        0  libinit2.o(.ARM.Collect$$libinit$$00000023)
    .ARM.Collect$$libinit$$00000025          0x08000122   Section        0  libinit2.o(.ARM.Collect$$libinit$$00000025)
    .ARM.Collect$$libinit$$0000002C          0x08000122   Section        0  libinit2.o(.ARM.Collect$$libinit$$0000002C)
    .ARM.Collect$$libinit$$0000002E          0x08000122   Section        0  libinit2.o(.ARM.Collect$$libinit$$0000002E)
    .ARM.Collect$$libinit$$00000030          0x08000122   Section        0  libinit2.o(.ARM.Collect$$libinit$$00000030)
    .ARM.Collect$$libinit$$00000032          0x08000122   Section        0  libinit2.o(.ARM.Collect$$libinit$$00000032)
    .ARM.Collect$$libinit$$00000033          0x08000122   Section        2  libinit2.o(.ARM.Collect$$libinit$$00000033)
    .ARM.Collect$$libshutdown$$00000000      0x08000124   Section        2  libshutdown.o(.ARM.Collect$$libshutdown$$00000000)
    .ARM.Collect$$libshutdown$$00000002      0x08000126   Section        0  libshutdown2.o(.ARM.Collect$$libshutdown$$00000002)
    .ARM.Collect$$libshutdown$$00000004      0x08000126   Section        0  libshutdown2.o(.ARM.Collect$$libshutdown$$00000004)
    .ARM.Collect$$libshutdown$$00000007      0x08000126   Section        0  libshutdown2.o(.ARM.Collect$$libshutdown$$00000007)
    .ARM.Collect$$libshutdown$$0000000A      0x08000126   Section        0  libshutdown2.o(.ARM.Collect$$libshutdown$$0000000A)
    .ARM.Collect$$libshutdown$$0000000C      0x08000126   Section        0  libshutdown2.o(.ARM.Collect$$libshutdown$$0000000C)
    .ARM.Collect$$libshutdown$$0000000F      0x08000126   Section        0  libshutdown2.o(.ARM.Collect$$libshutdown$$0000000F)
    .ARM.Collect$$libshutdown$$00000010      0x08000126   Section        2  libshutdown2.o(.ARM.Collect$$libshutdown$$00000010)
    .ARM.Collect$$rtentry$$00000000          0x08000128   Section        0  __rtentry.o(.ARM.Collect$$rtentry$$00000000)
    .ARM.Collect$$rtentry$$00000002          0x08000128   Section        0  __rtentry2.o(.ARM.Collect$$rtentry$$00000002)
    .ARM.Collect$$rtentry$$00000004          0x08000128   Section        6  __rtentry4.o(.ARM.Collect$$rtentry$$00000004)
    .ARM.Collect$$rtentry$$00000009          0x0800012e   Section        0  __rtentry2.o(.ARM.Collect$$rtentry$$00000009)
    .ARM.Collect$$rtentry$$0000000A          0x0800012e   Section        4  __rtentry2.o(.ARM.Collect$$rtentry$$0000000A)
    .ARM.Collect$$rtentry$$0000000C          0x08000132   Section        0  __rtentry2.o(.ARM.Collect$$rtentry$$0000000C)
    .ARM.Collect$$rtentry$$0000000D          0x08000132   Section        8  __rtentry2.o(.ARM.Collect$$rtentry$$0000000D)
    .ARM.Collect$$rtexit$$00000000           0x0800013a   Section        2  rtexit.o(.ARM.Collect$$rtexit$$00000000)
    .ARM.Collect$$rtexit$$00000002           0x0800013c   Section        0  rtexit2.o(.ARM.Collect$$rtexit$$00000002)
    .ARM.Collect$$rtexit$$00000003           0x0800013c   Section        4  rtexit2.o(.ARM.Collect$$rtexit$$00000003)
    .ARM.Collect$$rtexit$$00000004           0x08000140   Section        6  rtexit2.o(.ARM.Collect$$rtexit$$00000004)
    .text                                    0x08000148   Section       56  startup_stm32l071xx.o(.text)
    .text                                    0x08000180   Section        2  use_no_semi_2.o(.text)
    .text                                    0x08000182   Section        0  lludiv.o(.text)
    .text                                    0x08000284   Section        0  strcspn.o(.text)
    .text                                    0x080002a6   Section        0  strspn.o(.text)
    .text                                    0x080002c8   Section        0  strlen.o(.text)
    .text                                    0x0800030c   Section        0  rt_memclr.o(.text)
    .text                                    0x0800034c   Section        0  strcmp.o(.text)
    .text                                    0x080003d4   Section      346  aeabi_sdiv.o(.text)
    .text                                    0x0800052e   Section        0  heapauxi.o(.text)
    .text                                    0x08000534   Section        2  use_no_semi.o(.text)
    .text                                    0x08000536   Section       62  sys_stackheap_outer.o(.text)
    .text                                    0x08000574   Section        0  exit.o(.text)
    .text                                    0x08000584   Section        8  libspace.o(.text)
    .text                                    0x0800058c   Section        0  __dczerorl2.o(.text)
    i.DMA1_Channel2_3_IRQHandler             0x080005e4   Section        0  stm32l0xx_it.o(i.DMA1_Channel2_3_IRQHandler)
    i.Debug_AddToWriteBuffer                 0x080005fc   Section        0  usart.o(i.Debug_AddToWriteBuffer)
    i.Debug_cliActive                        0x0800064c   Section        0  usart.o(i.Debug_cliActive)
    i.Debug_disableCli                       0x08000658   Section        0  usart.o(i.Debug_disableCli)
    i.Debug_getChar                          0x0800068c   Section        0  usart.o(i.Debug_getChar)
    i.Debug_getRxDataLength                  0x080006bc   Section        0  usart.o(i.Debug_getRxDataLength)
    i.Debug_printf                           0x080006ec   Section        0  usart.o(i.Debug_printf)
    i.Error_Handler                          0x08000710   Section        0  main.o(i.Error_Handler)
    i.FLASH_SetErrorCode                     0x08000714   Section        0  stm32l0xx_hal_flash.o(i.FLASH_SetErrorCode)
    FLASH_SetErrorCode                       0x08000715   Thumb Code   134  stm32l0xx_hal_flash.o(i.FLASH_SetErrorCode)
    i.FLASH_WaitForLastOperation             0x080007a4   Section        0  stm32l0xx_hal_flash.o(i.FLASH_WaitForLastOperation)
    i.HAL_DMA_Abort                          0x08000814   Section        0  stm32l0xx_hal_dma.o(i.HAL_DMA_Abort)
    i.HAL_DMA_Abort_IT                       0x08000858   Section        0  stm32l0xx_hal_dma.o(i.HAL_DMA_Abort_IT)
    i.HAL_DMA_IRQHandler                     0x080008a4   Section        0  stm32l0xx_hal_dma.o(i.HAL_DMA_IRQHandler)
    i.HAL_DMA_Init                           0x0800094c   Section        0  stm32l0xx_hal_dma.o(i.HAL_DMA_Init)
    i.HAL_Delay                              0x080009dc   Section        0  stm32l0xx_hal.o(i.HAL_Delay)
    i.HAL_FLASHEx_DATAEEPROM_Lock            0x08000a00   Section        0  stm32l0xx_hal_flash_ex.o(i.HAL_FLASHEx_DATAEEPROM_Lock)
    i.HAL_FLASHEx_DATAEEPROM_Program         0x08000a14   Section        0  stm32l0xx_hal_flash_ex.o(i.HAL_FLASHEx_DATAEEPROM_Program)
    i.HAL_FLASHEx_DATAEEPROM_Unlock          0x08000a68   Section        0  stm32l0xx_hal_flash_ex.o(i.HAL_FLASHEx_DATAEEPROM_Unlock)
    i.HAL_GPIO_Init                          0x08000a9c   Section        0  stm32l0xx_hal_gpio.o(i.HAL_GPIO_Init)
    i.HAL_GPIO_TogglePin                     0x08000c58   Section        0  stm32l0xx_hal_gpio.o(i.HAL_GPIO_TogglePin)
    i.HAL_GPIO_WritePin                      0x08000c68   Section        0  stm32l0xx_hal_gpio.o(i.HAL_GPIO_WritePin)
    i.HAL_GetTick                            0x08000c74   Section        0  stm32l0xx_hal.o(i.HAL_GetTick)
    i.HAL_I2CEx_ConfigAnalogFilter           0x08000c80   Section        0  stm32l0xx_hal_i2c_ex.o(i.HAL_I2CEx_ConfigAnalogFilter)
    i.HAL_I2CEx_ConfigDigitalFilter          0x08000cca   Section        0  stm32l0xx_hal_i2c_ex.o(i.HAL_I2CEx_ConfigDigitalFilter)
    i.HAL_I2C_Init                           0x08000d14   Section        0  stm32l0xx_hal_i2c.o(i.HAL_I2C_Init)
    i.HAL_I2C_MspInit                        0x08000dc8   Section        0  i2c.o(i.HAL_I2C_MspInit)
    i.HAL_IWDG_Init                          0x08000e28   Section        0  stm32l0xx_hal_iwdg.o(i.HAL_IWDG_Init)
    i.HAL_IWDG_Refresh                       0x08000e94   Section        0  stm32l0xx_hal_iwdg.o(i.HAL_IWDG_Refresh)
    i.HAL_IncTick                            0x08000ea4   Section        0  stm32l0xx_hal.o(i.HAL_IncTick)
    i.HAL_Init                               0x08000eb4   Section        0  stm32l0xx_hal.o(i.HAL_Init)
    i.HAL_InitTick                           0x08000edc   Section        0  stm32l0xx_hal.o(i.HAL_InitTick)
    i.HAL_MspInit                            0x08000f20   Section        0  stm32l0xx_hal_msp.o(i.HAL_MspInit)
    i.HAL_NVIC_EnableIRQ                     0x08000f38   Section        0  stm32l0xx_hal_cortex.o(i.HAL_NVIC_EnableIRQ)
    i.HAL_NVIC_SetPriority                   0x08000f50   Section        0  stm32l0xx_hal_cortex.o(i.HAL_NVIC_SetPriority)
    i.HAL_RCCEx_PeriphCLKConfig              0x08000f58   Section        0  stm32l0xx_hal_rcc_ex.o(i.HAL_RCCEx_PeriphCLKConfig)
    i.HAL_RCC_ClockConfig                    0x080010d0   Section        0  stm32l0xx_hal_rcc.o(i.HAL_RCC_ClockConfig)
    i.HAL_RCC_GetPCLK1Freq                   0x0800126c   Section        0  stm32l0xx_hal_rcc.o(i.HAL_RCC_GetPCLK1Freq)
    i.HAL_RCC_GetPCLK2Freq                   0x0800128c   Section        0  stm32l0xx_hal_rcc.o(i.HAL_RCC_GetPCLK2Freq)
    i.HAL_RCC_GetSysClockFreq                0x080012ac   Section        0  stm32l0xx_hal_rcc.o(i.HAL_RCC_GetSysClockFreq)
    i.HAL_RCC_OscConfig                      0x08001324   Section        0  stm32l0xx_hal_rcc.o(i.HAL_RCC_OscConfig)
    i.HAL_SPI_Init                           0x08001756   Section        0  stm32l0xx_hal_spi.o(i.HAL_SPI_Init)
    i.HAL_SPI_MspInit                        0x0800180c   Section        0  spi.o(i.HAL_SPI_MspInit)
    i.HAL_SYSTICK_Config                     0x08001868   Section        0  stm32l0xx_hal_cortex.o(i.HAL_SYSTICK_Config)
    i.HAL_TIMEx_MasterConfigSynchronization  0x08001898   Section        0  stm32l0xx_hal_tim_ex.o(i.HAL_TIMEx_MasterConfigSynchronization)
    i.HAL_TIM_Base_Init                      0x080018f8   Section        0  stm32l0xx_hal_tim.o(i.HAL_TIM_Base_Init)
    i.HAL_TIM_Base_MspInit                   0x08001938   Section        0  tim.o(i.HAL_TIM_Base_MspInit)
    i.HAL_TIM_ConfigClockSource              0x08001964   Section        0  stm32l0xx_hal_tim.o(i.HAL_TIM_ConfigClockSource)
    i.HAL_TIM_IC_CaptureCallback             0x08001a40   Section        0  stm32l0xx_hal_tim.o(i.HAL_TIM_IC_CaptureCallback)
    i.HAL_TIM_IRQHandler                     0x08001a42   Section        0  stm32l0xx_hal_tim.o(i.HAL_TIM_IRQHandler)
    i.HAL_TIM_MspPostInit                    0x08001b68   Section        0  tim.o(i.HAL_TIM_MspPostInit)
    i.HAL_TIM_OC_DelayElapsedCallback        0x08001bb4   Section        0  stm32l0xx_hal_tim.o(i.HAL_TIM_OC_DelayElapsedCallback)
    i.HAL_TIM_PWM_ConfigChannel              0x08001bb6   Section        0  stm32l0xx_hal_tim.o(i.HAL_TIM_PWM_ConfigChannel)
    i.HAL_TIM_PWM_Init                       0x08001c86   Section        0  stm32l0xx_hal_tim.o(i.HAL_TIM_PWM_Init)
    i.HAL_TIM_PWM_MspInit                    0x08001cc4   Section        0  stm32l0xx_hal_tim.o(i.HAL_TIM_PWM_MspInit)
    i.HAL_TIM_PWM_PulseFinishedCallback      0x08001cc6   Section        0  stm32l0xx_hal_tim.o(i.HAL_TIM_PWM_PulseFinishedCallback)
    i.HAL_TIM_PeriodElapsedCallback          0x08001cc8   Section        0  stm32l0xx_hal_tim.o(i.HAL_TIM_PeriodElapsedCallback)
    i.HAL_TIM_TriggerCallback                0x08001cca   Section        0  stm32l0xx_hal_tim.o(i.HAL_TIM_TriggerCallback)
    i.HAL_UARTEx_RxEventCallback             0x08001ccc   Section        0  stm32l0xx_hal_uart.o(i.HAL_UARTEx_RxEventCallback)
    i.HAL_UARTEx_WakeupCallback              0x08001cce   Section        0  stm32l0xx_hal_uart_ex.o(i.HAL_UARTEx_WakeupCallback)
    i.HAL_UART_ErrorCallback                 0x08001cd0   Section        0  stm32l0xx_hal_uart.o(i.HAL_UART_ErrorCallback)
    i.HAL_UART_IRQHandler                    0x08001cd4   Section        0  stm32l0xx_hal_uart.o(i.HAL_UART_IRQHandler)
    i.HAL_UART_Init                          0x08001f78   Section        0  stm32l0xx_hal_uart.o(i.HAL_UART_Init)
    i.HAL_UART_MspInit                       0x08001fe4   Section        0  usart.o(i.HAL_UART_MspInit)
    i.HAL_UART_Receive_IT                    0x08002148   Section        0  stm32l0xx_hal_uart.o(i.HAL_UART_Receive_IT)
    i.HAL_UART_RxCpltCallback                0x080021b8   Section        0  main.o(i.HAL_UART_RxCpltCallback)
    i.HAL_UART_Transmit                      0x08002240   Section        0  stm32l0xx_hal_uart.o(i.HAL_UART_Transmit)
    i.HAL_UART_Transmit_IT                   0x08002314   Section        0  stm32l0xx_hal_uart.o(i.HAL_UART_Transmit_IT)
    i.HAL_UART_TxCpltCallback                0x0800239c   Section        0  usart.o(i.HAL_UART_TxCpltCallback)
    i.HardFault_Handler                      0x080023f8   Section        0  stm32l0xx_it.o(i.HardFault_Handler)
    i.LPUART1_IRQHandler                     0x080023fc   Section        0  stm32l0xx_it.o(i.LPUART1_IRQHandler)
    i.MX_DMA_Init                            0x0800240c   Section        0  dma.o(i.MX_DMA_Init)
    i.MX_GPIO_Init                           0x08002434   Section        0  gpio.o(i.MX_GPIO_Init)
    i.MX_I2C1_Init                           0x080024ac   Section        0  i2c.o(i.MX_I2C1_Init)
    i.MX_IWDG_Init                           0x08002504   Section        0  iwdg.o(i.MX_IWDG_Init)
    i.MX_LPUART1_UART_Init                   0x08002530   Section        0  usart.o(i.MX_LPUART1_UART_Init)
    i.MX_SPI2_Init                           0x08002568   Section        0  spi.o(i.MX_SPI2_Init)
    i.MX_TIM2_Init                           0x080025a8   Section        0  tim.o(i.MX_TIM2_Init)
    i.MX_USART1_UART_Init                    0x0800266c   Section        0  usart.o(i.MX_USART1_UART_Init)
    i.MX_USART4_UART_Init                    0x080026a4   Section        0  usart.o(i.MX_USART4_UART_Init)
    i.NMI_Handler                            0x080026dc   Section        0  stm32l0xx_it.o(i.NMI_Handler)
    i.PendSV_Handler                         0x080026de   Section        0  stm32l0xx_it.o(i.PendSV_Handler)
    i.SVC_Handler                            0x080026e0   Section        0  stm32l0xx_it.o(i.SVC_Handler)
    i.Shell_exec                             0x080026e4   Section        0  shell.o(i.Shell_exec)
    i.SysTick_Handler                        0x08002798   Section        0  stm32l0xx_it.o(i.SysTick_Handler)
    i.SystemClock_Config                     0x080027a0   Section        0  main.o(i.SystemClock_Config)
    i.SystemInit                             0x08002838   Section        0  system_stm32l0xx.o(i.SystemInit)
    i.TIM2_IRQHandler                        0x0800283c   Section        0  stm32l0xx_it.o(i.TIM2_IRQHandler)
    i.TIM_Base_SetConfig                     0x0800284c   Section        0  stm32l0xx_hal_tim.o(i.TIM_Base_SetConfig)
    TIM_Base_SetConfig                       0x0800284d   Thumb Code    90  stm32l0xx_hal_tim.o(i.TIM_Base_SetConfig)
    i.TIM_ETR_SetConfig                      0x080028b4   Section        0  stm32l0xx_hal_tim.o(i.TIM_ETR_SetConfig)
    TIM_ETR_SetConfig                        0x080028b5   Thumb Code    22  stm32l0xx_hal_tim.o(i.TIM_ETR_SetConfig)
    i.TIM_ITRx_SetConfig                     0x080028ca   Section        0  stm32l0xx_hal_tim.o(i.TIM_ITRx_SetConfig)
    TIM_ITRx_SetConfig                       0x080028cb   Thumb Code    16  stm32l0xx_hal_tim.o(i.TIM_ITRx_SetConfig)
    i.TIM_OC1_SetConfig                      0x080028da   Section        0  stm32l0xx_hal_tim.o(i.TIM_OC1_SetConfig)
    TIM_OC1_SetConfig                        0x080028db   Thumb Code    48  stm32l0xx_hal_tim.o(i.TIM_OC1_SetConfig)
    i.TIM_OC2_SetConfig                      0x0800290a   Section        0  stm32l0xx_hal_tim.o(i.TIM_OC2_SetConfig)
    TIM_OC2_SetConfig                        0x0800290b   Thumb Code    50  stm32l0xx_hal_tim.o(i.TIM_OC2_SetConfig)
    i.TIM_OC3_SetConfig                      0x0800293c   Section        0  stm32l0xx_hal_tim.o(i.TIM_OC3_SetConfig)
    TIM_OC3_SetConfig                        0x0800293d   Thumb Code    54  stm32l0xx_hal_tim.o(i.TIM_OC3_SetConfig)
    i.TIM_OC4_SetConfig                      0x08002972   Section        0  stm32l0xx_hal_tim.o(i.TIM_OC4_SetConfig)
    TIM_OC4_SetConfig                        0x08002973   Thumb Code    54  stm32l0xx_hal_tim.o(i.TIM_OC4_SetConfig)
    i.TIM_TI1_ConfigInputStage               0x080029a8   Section        0  stm32l0xx_hal_tim.o(i.TIM_TI1_ConfigInputStage)
    TIM_TI1_ConfigInputStage                 0x080029a9   Thumb Code    34  stm32l0xx_hal_tim.o(i.TIM_TI1_ConfigInputStage)
    i.TIM_TI2_ConfigInputStage               0x080029ca   Section        0  stm32l0xx_hal_tim.o(i.TIM_TI2_ConfigInputStage)
    TIM_TI2_ConfigInputStage                 0x080029cb   Thumb Code    38  stm32l0xx_hal_tim.o(i.TIM_TI2_ConfigInputStage)
    i.UART_AdvFeatureConfig                  0x080029f0   Section        0  stm32l0xx_hal_uart.o(i.UART_AdvFeatureConfig)
    i.UART_CheckIdleState                    0x08002abc   Section        0  stm32l0xx_hal_uart.o(i.UART_CheckIdleState)
    i.UART_DMAAbortOnError                   0x08002b20   Section        0  stm32l0xx_hal_uart.o(i.UART_DMAAbortOnError)
    UART_DMAAbortOnError                     0x08002b21   Thumb Code    20  stm32l0xx_hal_uart.o(i.UART_DMAAbortOnError)
    i.UART_EndRxTransfer                     0x08002b34   Section        0  stm32l0xx_hal_uart.o(i.UART_EndRxTransfer)
    UART_EndRxTransfer                       0x08002b35   Thumb Code    94  stm32l0xx_hal_uart.o(i.UART_EndRxTransfer)
    i.UART_RxISR_16BIT                       0x08002b92   Section        0  stm32l0xx_hal_uart.o(i.UART_RxISR_16BIT)
    UART_RxISR_16BIT                         0x08002b93   Thumb Code   168  stm32l0xx_hal_uart.o(i.UART_RxISR_16BIT)
    i.UART_RxISR_8BIT                        0x08002c3a   Section        0  stm32l0xx_hal_uart.o(i.UART_RxISR_8BIT)
    UART_RxISR_8BIT                          0x08002c3b   Thumb Code   168  stm32l0xx_hal_uart.o(i.UART_RxISR_8BIT)
    i.UART_SetConfig                         0x08002ce4   Section        0  stm32l0xx_hal_uart.o(i.UART_SetConfig)
    i.UART_Start_Receive_IT                  0x08002ef8   Section        0  stm32l0xx_hal_uart.o(i.UART_Start_Receive_IT)
    i.UART_TxISR_16BIT                       0x08002fac   Section        0  stm32l0xx_hal_uart.o(i.UART_TxISR_16BIT)
    UART_TxISR_16BIT                         0x08002fad   Thumb Code    94  stm32l0xx_hal_uart.o(i.UART_TxISR_16BIT)
    i.UART_TxISR_8BIT                        0x0800300a   Section        0  stm32l0xx_hal_uart.o(i.UART_TxISR_8BIT)
    UART_TxISR_8BIT                          0x0800300b   Thumb Code    90  stm32l0xx_hal_uart.o(i.UART_TxISR_8BIT)
    i.UART_WaitOnFlagUntilTimeout            0x08003064   Section        0  stm32l0xx_hal_uart.o(i.UART_WaitOnFlagUntilTimeout)
    i.USART1_IRQHandler                      0x08003138   Section        0  stm32l0xx_it.o(i.USART1_IRQHandler)
    i.USART4_5_IRQHandler                    0x08003148   Section        0  stm32l0xx_it.o(i.USART4_5_IRQHandler)
    i.__ARM_common_ll_muluu                  0x08003158   Section        0  stm32l0xx_hal_rcc.o(i.__ARM_common_ll_muluu)
    i.__ARM_common_switch8                   0x08003188   Section        0  tiny_sscanf.o(i.__ARM_common_switch8)
    i.__NVIC_SetPriority                     0x080031a4   Section        0  stm32l0xx_hal_cortex.o(i.__NVIC_SetPriority)
    __NVIC_SetPriority                       0x080031a5   Thumb Code    60  stm32l0xx_hal_cortex.o(i.__NVIC_SetPriority)
    i._sys_exit                              0x080031e8   Section        0  main.o(i._sys_exit)
    i.await_uart_tx                          0x080031ea   Section        0  usart.o(i.await_uart_tx)
    i.clear_buffer                           0x080031f6   Section        0  modbus_test.o(i.clear_buffer)
    i.clear_reset_source                     0x08003208   Section        0  main.o(i.clear_reset_source)
    i.cli_help                               0x0800321c   Section        0  app_cli.o(i.cli_help)
    i.cli_led                                0x0800358c   Section        0  app_cli.o(i.cli_led)
    i.cli_led_help                           0x08003598   Section        0  cli_led.o(i.cli_led_help)
    i.cli_led_implementation                 0x080035d8   Section        0  cli_led.o(i.cli_led_implementation)
    i.cli_reboot                             0x0800374c   Section        0  app_cli.o(i.cli_reboot)
    i.cli_run                                0x08003750   Section        0  app_cli.o(i.cli_run)
    i.cli_test                               0x08003770   Section        0  app_cli.o(i.cli_test)
    i.detect_thermokon_sensor                0x080039a4   Section        0  modbus_test.o(i.detect_thermokon_sensor)
    i.ee_number                              0x08003abc   Section        0  tiny_vsnprintf.o(i.ee_number)
    ee_number                                0x08003abd   Thumb Code   254  tiny_vsnprintf.o(i.ee_number)
    i.flash_readblock                        0x08003bc0   Section        0  internal_flash.o(i.flash_readblock)
    i.flash_writeblock                       0x08003be0   Section        0  internal_flash.o(i.flash_writeblock)
    i.isCharToSend                           0x08003c18   Section        0  usart.o(i.isCharToSend)
    i.main                                   0x08003c28   Section        0  main.o(i.main)
    i.main_handle_cli                        0x08003cc4   Section        0  cli_process.o(i.main_handle_cli)
    i.modbus_calculateCrc                    0x08003db0   Section        0  modbus_test.o(i.modbus_calculateCrc)
    i.modbus_read_registers                  0x08003e04   Section        0  modbus_test.o(i.modbus_read_registers)
    i.prvCmdIdentify_Tokenize                0x08003f90   Section        0  shell.o(i.prvCmdIdentify_Tokenize)
    prvCmdIdentify_Tokenize                  0x08003f91   Thumb Code   220  shell.o(i.prvCmdIdentify_Tokenize)
    i.prvGetCmdLine                          0x0800407c   Section        0  usartshell.o(i.prvGetCmdLine)
    prvGetCmdLine                            0x0800407d   Thumb Code   150  usartshell.o(i.prvGetCmdLine)
    i.reflect_byte                           0x08004128   Section        0  modbus_test.o(i.reflect_byte)
    i.string_output                          0x0800414c   Section        0  modbus_test.o(i.string_output)
    i.tiny_vsnprintf_like                    0x08004248   Section        0  tiny_vsnprintf.o(i.tiny_vsnprintf_like)
    i.vComShellTask                          0x080043a4   Section        0  usartshell.o(i.vComShellTask)
    i.vcom1shell_PrintMsg                    0x080043d4   Section        0  usartshell.o(i.vcom1shell_PrintMsg)
    i.vcom1shell_PutChar                     0x080043ea   Section        0  usartshell.o(i.vcom1shell_PutChar)
    i.watchdog_reset_occured                 0x080043f8   Section        0  main.o(i.watchdog_reset_occured)
    .constdata                               0x0800440c   Section       25  system_stm32l0xx.o(.constdata)
    .constdata                               0x08004425   Section        8  system_stm32l0xx.o(.constdata)
    .constdata                               0x08004430   Section       12  shell.o(.constdata)
    .conststring                             0x0800443c   Section       77  tiny_vsnprintf.o(.conststring)
    .conststring                             0x0800448c   Section       33  app_cli.o(.conststring)
    .conststring                             0x080044b0   Section       87  shell.o(.conststring)
    .data                                    0x20000000   Section        8  tiny_vsnprintf.o(.data)
    lower_digits                             0x20000000   Data           4  tiny_vsnprintf.o(.data)
    upper_digits                             0x20000004   Data           4  tiny_vsnprintf.o(.data)
    .data                                    0x20000008   Section        4  main.o(.data)
    watchdog_was_reset_source                0x20000008   Data           4  main.o(.data)
    .data                                    0x2000000c   Section       20  usart.o(.data)
    .data                                    0x20000020   Section        1  usart.o(.data)
    .data                                    0x20000024   Section       12  stm32l0xx_hal.o(.data)
    .data                                    0x20000030   Section        4  system_stm32l0xx.o(.data)
    .data                                    0x20000034   Section        2  modbus_test.o(.data)
    .data                                    0x20000038   Section      420  app_cli.o(.data)
    .data                                    0x200001dc   Section        8  shell.o(.data)
    PrevCmdIdx                               0x200001dc   Data           4  shell.o(.data)
    PrevCmdAc                                0x200001e0   Data           4  shell.o(.data)
    .data                                    0x200001e4   Section        3  usartshell.o(.data)
    banner                                   0x200001e4   Data           1  usartshell.o(.data)
    idx                                      0x200001e5   Data           1  usartshell.o(.data)
    print_prompt                             0x200001e6   Data           1  usartshell.o(.data)
    .bss                                     0x200001e8   Section       76  i2c.o(.bss)
    .bss                                     0x20000234   Section       16  iwdg.o(.bss)
    .bss                                     0x20000244   Section     1664  usart.o(.bss)
    .bss                                     0x200008c4   Section       88  spi.o(.bss)
    .bss                                     0x2000091c   Section       64  tim.o(.bss)
    .bss                                     0x2000095c   Section       24  stm32l0xx_hal_flash.o(.bss)
    .bss                                     0x20000974   Section       16  modbus_test.o(.bss)
    .bss                                     0x20000984   Section       32  shell.o(.bss)
    .bss                                     0x200009a4   Section       93  usartshell.o(.bss)
    acStringCmd                              0x200009a4   Data          93  usartshell.o(.bss)
    .bss                                     0x20000a04   Section       96  libspace.o(.bss)
    HEAP                                     0x20000a68   Section      512  startup_stm32l071xx.o(HEAP)
    Heap_Mem                                 0x20000a68   Data         512  startup_stm32l071xx.o(HEAP)
    STACK                                    0x20000c68   Section     1024  startup_stm32l071xx.o(STACK)
    Stack_Mem                                0x20000c68   Data        1024  startup_stm32l071xx.o(STACK)
    __initial_sp                             0x20001068   Data           0  startup_stm32l071xx.o(STACK)

    Global Symbols

    Symbol Name                              Value     Ov Type        Size  Object(Section)

    BuildAttributes$$THM_ISAv3M$S$PE$A:L22$X:L11$S22$IEEE1$IW$USESV6$~STKCKD$USESV7$~SHL$OSPACE$ROPI$EBA8$UX$STANDARDLIB$REQ8$PRES8$EABIv2 0x00000000   Number         0  anon$$obj.o ABSOLUTE
    __ARM_use_no_argv                        0x00000000   Number         0  main.o ABSOLUTE
    __ARM_exceptions_init                     - Undefined Weak Reference
    __alloca_initialize                       - Undefined Weak Reference
    __arm_preinit_                            - Undefined Weak Reference
    __cpp_initialize__aeabi_                  - Undefined Weak Reference
    __cxa_finalize                            - Undefined Weak Reference
    __rt_locale                               - Undefined Weak Reference
    __sigvec_lookup                           - Undefined Weak Reference
    _atexit_init                              - Undefined Weak Reference
    _call_atexit_fns                          - Undefined Weak Reference
    _clock_init                               - Undefined Weak Reference
    _fp_trap_init                             - Undefined Weak Reference
    _fp_trap_shutdown                         - Undefined Weak Reference
    _get_lc_collate                           - Undefined Weak Reference
    _get_lc_ctype                             - Undefined Weak Reference
    _get_lc_monetary                          - Undefined Weak Reference
    _get_lc_numeric                           - Undefined Weak Reference
    _get_lc_time                              - Undefined Weak Reference
    _getenv_init                              - Undefined Weak Reference
    _handle_redirection                       - Undefined Weak Reference
    _init_alloc                               - Undefined Weak Reference
    _init_user_alloc                          - Undefined Weak Reference
    _initio                                   - Undefined Weak Reference
    _rand_init                                - Undefined Weak Reference
    _signal_finish                            - Undefined Weak Reference
    _signal_init                              - Undefined Weak Reference
    _terminate_alloc                          - Undefined Weak Reference
    _terminate_user_alloc                     - Undefined Weak Reference
    _terminateio                              - Undefined Weak Reference
    __Vectors_Size                           0x000000c0   Number         0  startup_stm32l071xx.o ABSOLUTE
    __Vectors                                0x08000000   Data           4  startup_stm32l071xx.o(RESET)
    __Vectors_End                            0x080000c0   Data           0  startup_stm32l071xx.o(RESET)
    __main                                   0x080000c1   Thumb Code     8  __main.o(!!!main)
    __scatterload                            0x080000c9   Thumb Code     0  __scatter.o(!!!scatter)
    __scatterload_rt2                        0x080000c9   Thumb Code    52  __scatter.o(!!!scatter)
    __scatterload_rt2_thumb_only             0x080000c9   Thumb Code     0  __scatter.o(!!!scatter)
    __scatterload_null                       0x080000d9   Thumb Code     0  __scatter.o(!!!scatter)
    __scatterload_zeroinit                   0x08000105   Thumb Code    28  __scatter_zi.o(!!handler_zi)
    __rt_lib_init                            0x08000121   Thumb Code     0  libinit.o(.ARM.Collect$$libinit$$00000000)
    __rt_lib_init_alloca_1                   0x08000123   Thumb Code     0  libinit2.o(.ARM.Collect$$libinit$$0000002E)
    __rt_lib_init_argv_1                     0x08000123   Thumb Code     0  libinit2.o(.ARM.Collect$$libinit$$0000002C)
    __rt_lib_init_atexit_1                   0x08000123   Thumb Code     0  libinit2.o(.ARM.Collect$$libinit$$0000001B)
    __rt_lib_init_clock_1                    0x08000123   Thumb Code     0  libinit2.o(.ARM.Collect$$libinit$$00000021)
    __rt_lib_init_cpp_1                      0x08000123   Thumb Code     0  libinit2.o(.ARM.Collect$$libinit$$00000032)
    __rt_lib_init_exceptions_1               0x08000123   Thumb Code     0  libinit2.o(.ARM.Collect$$libinit$$00000030)
    __rt_lib_init_fp_1                       0x08000123   Thumb Code     0  libinit2.o(.ARM.Collect$$libinit$$00000002)
    __rt_lib_init_fp_trap_1                  0x08000123   Thumb Code     0  libinit2.o(.ARM.Collect$$libinit$$0000001F)
    __rt_lib_init_getenv_1                   0x08000123   Thumb Code     0  libinit2.o(.ARM.Collect$$libinit$$00000023)
    __rt_lib_init_heap_1                     0x08000123   Thumb Code     0  libinit2.o(.ARM.Collect$$libinit$$0000000A)
    __rt_lib_init_lc_collate_1               0x08000123   Thumb Code     0  libinit2.o(.ARM.Collect$$libinit$$00000011)
    __rt_lib_init_lc_ctype_1                 0x08000123   Thumb Code     0  libinit2.o(.ARM.Collect$$libinit$$00000013)
    __rt_lib_init_lc_monetary_1              0x08000123   Thumb Code     0  libinit2.o(.ARM.Collect$$libinit$$00000015)
    __rt_lib_init_lc_numeric_1               0x08000123   Thumb Code     0  libinit2.o(.ARM.Collect$$libinit$$00000017)
    __rt_lib_init_lc_time_1                  0x08000123   Thumb Code     0  libinit2.o(.ARM.Collect$$libinit$$00000019)
    __rt_lib_init_preinit_1                  0x08000123   Thumb Code     0  libinit2.o(.ARM.Collect$$libinit$$00000004)
    __rt_lib_init_rand_1                     0x08000123   Thumb Code     0  libinit2.o(.ARM.Collect$$libinit$$0000000E)
    __rt_lib_init_return                     0x08000123   Thumb Code     0  libinit2.o(.ARM.Collect$$libinit$$00000033)
    __rt_lib_init_signal_1                   0x08000123   Thumb Code     0  libinit2.o(.ARM.Collect$$libinit$$0000001D)
    __rt_lib_init_stdio_1                    0x08000123   Thumb Code     0  libinit2.o(.ARM.Collect$$libinit$$00000025)
    __rt_lib_init_user_alloc_1               0x08000123   Thumb Code     0  libinit2.o(.ARM.Collect$$libinit$$0000000C)
    __rt_lib_shutdown                        0x08000125   Thumb Code     0  libshutdown.o(.ARM.Collect$$libshutdown$$00000000)
    __rt_lib_shutdown_cpp_1                  0x08000127   Thumb Code     0  libshutdown2.o(.ARM.Collect$$libshutdown$$00000002)
    __rt_lib_shutdown_fp_trap_1              0x08000127   Thumb Code     0  libshutdown2.o(.ARM.Collect$$libshutdown$$00000007)
    __rt_lib_shutdown_heap_1                 0x08000127   Thumb Code     0  libshutdown2.o(.ARM.Collect$$libshutdown$$0000000F)
    __rt_lib_shutdown_return                 0x08000127   Thumb Code     0  libshutdown2.o(.ARM.Collect$$libshutdown$$00000010)
    __rt_lib_shutdown_signal_1               0x08000127   Thumb Code     0  libshutdown2.o(.ARM.Collect$$libshutdown$$0000000A)
    __rt_lib_shutdown_stdio_1                0x08000127   Thumb Code     0  libshutdown2.o(.ARM.Collect$$libshutdown$$00000004)
    __rt_lib_shutdown_user_alloc_1           0x08000127   Thumb Code     0  libshutdown2.o(.ARM.Collect$$libshutdown$$0000000C)
    __rt_entry                               0x08000129   Thumb Code     0  __rtentry.o(.ARM.Collect$$rtentry$$00000000)
    __rt_entry_presh_1                       0x08000129   Thumb Code     0  __rtentry2.o(.ARM.Collect$$rtentry$$00000002)
    __rt_entry_sh                            0x08000129   Thumb Code     0  __rtentry4.o(.ARM.Collect$$rtentry$$00000004)
    __rt_entry_li                            0x0800012f   Thumb Code     0  __rtentry2.o(.ARM.Collect$$rtentry$$0000000A)
    __rt_entry_postsh_1                      0x0800012f   Thumb Code     0  __rtentry2.o(.ARM.Collect$$rtentry$$00000009)
    __rt_entry_main                          0x08000133   Thumb Code     0  __rtentry2.o(.ARM.Collect$$rtentry$$0000000D)
    __rt_entry_postli_1                      0x08000133   Thumb Code     0  __rtentry2.o(.ARM.Collect$$rtentry$$0000000C)
    __rt_exit                                0x0800013b   Thumb Code     0  rtexit.o(.ARM.Collect$$rtexit$$00000000)
    __rt_exit_ls                             0x0800013d   Thumb Code     0  rtexit2.o(.ARM.Collect$$rtexit$$00000003)
    __rt_exit_prels_1                        0x0800013d   Thumb Code     0  rtexit2.o(.ARM.Collect$$rtexit$$00000002)
    __rt_exit_exit                           0x08000141   Thumb Code     0  rtexit2.o(.ARM.Collect$$rtexit$$00000004)
    Reset_Handler                            0x08000149   Thumb Code     8  startup_stm32l071xx.o(.text)
    ADC1_COMP_IRQHandler                     0x0800015b   Thumb Code     0  startup_stm32l071xx.o(.text)
    DMA1_Channel1_IRQHandler                 0x0800015b   Thumb Code     0  startup_stm32l071xx.o(.text)
    DMA1_Channel4_5_6_7_IRQHandler           0x0800015b   Thumb Code     0  startup_stm32l071xx.o(.text)
    EXTI0_1_IRQHandler                       0x0800015b   Thumb Code     0  startup_stm32l071xx.o(.text)
    EXTI2_3_IRQHandler                       0x0800015b   Thumb Code     0  startup_stm32l071xx.o(.text)
    EXTI4_15_IRQHandler                      0x0800015b   Thumb Code     0  startup_stm32l071xx.o(.text)
    FLASH_IRQHandler                         0x0800015b   Thumb Code     0  startup_stm32l071xx.o(.text)
    I2C1_IRQHandler                          0x0800015b   Thumb Code     0  startup_stm32l071xx.o(.text)
    I2C2_IRQHandler                          0x0800015b   Thumb Code     0  startup_stm32l071xx.o(.text)
    I2C3_IRQHandler                          0x0800015b   Thumb Code     0  startup_stm32l071xx.o(.text)
    LPTIM1_IRQHandler                        0x0800015b   Thumb Code     0  startup_stm32l071xx.o(.text)
    PVD_IRQHandler                           0x0800015b   Thumb Code     0  startup_stm32l071xx.o(.text)
    RCC_IRQHandler                           0x0800015b   Thumb Code     0  startup_stm32l071xx.o(.text)
    RTC_IRQHandler                           0x0800015b   Thumb Code     0  startup_stm32l071xx.o(.text)
    SPI1_IRQHandler                          0x0800015b   Thumb Code     0  startup_stm32l071xx.o(.text)
    SPI2_IRQHandler                          0x0800015b   Thumb Code     0  startup_stm32l071xx.o(.text)
    TIM21_IRQHandler                         0x0800015b   Thumb Code     0  startup_stm32l071xx.o(.text)
    TIM22_IRQHandler                         0x0800015b   Thumb Code     0  startup_stm32l071xx.o(.text)
    TIM3_IRQHandler                          0x0800015b   Thumb Code     0  startup_stm32l071xx.o(.text)
    TIM6_IRQHandler                          0x0800015b   Thumb Code     0  startup_stm32l071xx.o(.text)
    TIM7_IRQHandler                          0x0800015b   Thumb Code     0  startup_stm32l071xx.o(.text)
    USART2_IRQHandler                        0x0800015b   Thumb Code     0  startup_stm32l071xx.o(.text)
    WWDG_IRQHandler                          0x0800015b   Thumb Code     0  startup_stm32l071xx.o(.text)
    __user_initial_stackheap                 0x0800015d   Thumb Code     0  startup_stm32l071xx.o(.text)
    __use_no_semihosting                     0x08000181   Thumb Code     2  use_no_semi_2.o(.text)
    __aeabi_uldivmod                         0x08000183   Thumb Code   258  lludiv.o(.text)
    _ll_udiv                                 0x08000183   Thumb Code     0  lludiv.o(.text)
    strcspn                                  0x08000285   Thumb Code    34  strcspn.o(.text)
    strspn                                   0x080002a7   Thumb Code    32  strspn.o(.text)
    strlen                                   0x080002c9   Thumb Code    62  strlen.o(.text)
    _memset_w                                0x0800030d   Thumb Code    26  rt_memclr.o(.text)
    _memset                                  0x08000327   Thumb Code    30  rt_memclr.o(.text)
    __aeabi_memclr                           0x08000345   Thumb Code     4  rt_memclr.o(.text)
    __rt_memclr                              0x08000345   Thumb Code     0  rt_memclr.o(.text)
    __aeabi_memclr4                          0x08000349   Thumb Code     0  rt_memclr.o(.text)
    __aeabi_memclr8                          0x08000349   Thumb Code     0  rt_memclr.o(.text)
    __rt_memclr_w                            0x08000349   Thumb Code     4  rt_memclr.o(.text)
    strcmp                                   0x0800034d   Thumb Code   132  strcmp.o(.text)
    __aeabi_uidiv                            0x080003d5   Thumb Code     0  aeabi_sdiv.o(.text)
    __aeabi_uidivmod                         0x080003d5   Thumb Code    20  aeabi_sdiv.o(.text)
    __aeabi_idiv                             0x080003e9   Thumb Code     0  aeabi_sdiv.o(.text)
    __aeabi_idivmod                          0x080003e9   Thumb Code   326  aeabi_sdiv.o(.text)
    __use_two_region_memory                  0x0800052f   Thumb Code     2  heapauxi.o(.text)
    __rt_heap_escrow$2region                 0x08000531   Thumb Code     2  heapauxi.o(.text)
    __rt_heap_expand$2region                 0x08000533   Thumb Code     2  heapauxi.o(.text)
    __I$use$semihosting                      0x08000535   Thumb Code     0  use_no_semi.o(.text)
    __use_no_semihosting_swi                 0x08000535   Thumb Code     2  use_no_semi.o(.text)
    __user_setup_stackheap                   0x08000537   Thumb Code    62  sys_stackheap_outer.o(.text)
    exit                                     0x08000575   Thumb Code    16  exit.o(.text)
    __user_libspace                          0x08000585   Thumb Code     8  libspace.o(.text)
    __user_perproc_libspace                  0x08000585   Thumb Code     0  libspace.o(.text)
    __user_perthread_libspace                0x08000585   Thumb Code     0  libspace.o(.text)
    __decompress                             0x0800058d   Thumb Code     0  __dczerorl2.o(.text)
    __decompress1                            0x0800058d   Thumb Code    86  __dczerorl2.o(.text)
    DMA1_Channel2_3_IRQHandler               0x080005e5   Thumb Code    16  stm32l0xx_it.o(i.DMA1_Channel2_3_IRQHandler)
    Debug_AddToWriteBuffer                   0x080005fd   Thumb Code    66  usart.o(i.Debug_AddToWriteBuffer)
    Debug_cliActive                          0x0800064d   Thumb Code     6  usart.o(i.Debug_cliActive)
    Debug_disableCli                         0x08000659   Thumb Code    44  usart.o(i.Debug_disableCli)
    Debug_getChar                            0x0800068d   Thumb Code    38  usart.o(i.Debug_getChar)
    Debug_getRxDataLength                    0x080006bd   Thumb Code    42  usart.o(i.Debug_getRxDataLength)
    Debug_printf                             0x080006ed   Thumb Code    36  usart.o(i.Debug_printf)
    Error_Handler                            0x08000711   Thumb Code     4  main.o(i.Error_Handler)
    FLASH_WaitForLastOperation               0x080007a5   Thumb Code   106  stm32l0xx_hal_flash.o(i.FLASH_WaitForLastOperation)
    HAL_DMA_Abort                            0x08000815   Thumb Code    68  stm32l0xx_hal_dma.o(i.HAL_DMA_Abort)
    HAL_DMA_Abort_IT                         0x08000859   Thumb Code    76  stm32l0xx_hal_dma.o(i.HAL_DMA_Abort_IT)
    HAL_DMA_IRQHandler                       0x080008a5   Thumb Code   168  stm32l0xx_hal_dma.o(i.HAL_DMA_IRQHandler)
    HAL_DMA_Init                             0x0800094d   Thumb Code   132  stm32l0xx_hal_dma.o(i.HAL_DMA_Init)
    HAL_Delay                                0x080009dd   Thumb Code    32  stm32l0xx_hal.o(i.HAL_Delay)
    HAL_FLASHEx_DATAEEPROM_Lock              0x08000a01   Thumb Code    14  stm32l0xx_hal_flash_ex.o(i.HAL_FLASHEx_DATAEEPROM_Lock)
    HAL_FLASHEx_DATAEEPROM_Program           0x08000a15   Thumb Code    76  stm32l0xx_hal_flash_ex.o(i.HAL_FLASHEx_DATAEEPROM_Program)
    HAL_FLASHEx_DATAEEPROM_Unlock            0x08000a69   Thumb Code    40  stm32l0xx_hal_flash_ex.o(i.HAL_FLASHEx_DATAEEPROM_Unlock)
    HAL_GPIO_Init                            0x08000a9d   Thumb Code   412  stm32l0xx_hal_gpio.o(i.HAL_GPIO_Init)
    HAL_GPIO_TogglePin                       0x08000c59   Thumb Code    16  stm32l0xx_hal_gpio.o(i.HAL_GPIO_TogglePin)
    HAL_GPIO_WritePin                        0x08000c69   Thumb Code    12  stm32l0xx_hal_gpio.o(i.HAL_GPIO_WritePin)
    HAL_GetTick                              0x08000c75   Thumb Code     6  stm32l0xx_hal.o(i.HAL_GetTick)
    HAL_I2CEx_ConfigAnalogFilter             0x08000c81   Thumb Code    74  stm32l0xx_hal_i2c_ex.o(i.HAL_I2CEx_ConfigAnalogFilter)
    HAL_I2CEx_ConfigDigitalFilter            0x08000ccb   Thumb Code    72  stm32l0xx_hal_i2c_ex.o(i.HAL_I2CEx_ConfigDigitalFilter)
    HAL_I2C_Init                             0x08000d15   Thumb Code   176  stm32l0xx_hal_i2c.o(i.HAL_I2C_Init)
    HAL_I2C_MspInit                          0x08000dc9   Thumb Code    82  i2c.o(i.HAL_I2C_MspInit)
    HAL_IWDG_Init                            0x08000e29   Thumb Code    94  stm32l0xx_hal_iwdg.o(i.HAL_IWDG_Init)
    HAL_IWDG_Refresh                         0x08000e95   Thumb Code    10  stm32l0xx_hal_iwdg.o(i.HAL_IWDG_Refresh)
    HAL_IncTick                              0x08000ea5   Thumb Code    12  stm32l0xx_hal.o(i.HAL_IncTick)
    HAL_Init                                 0x08000eb5   Thumb Code    36  stm32l0xx_hal.o(i.HAL_Init)
    HAL_InitTick                             0x08000edd   Thumb Code    58  stm32l0xx_hal.o(i.HAL_InitTick)
    HAL_MspInit                              0x08000f21   Thumb Code    20  stm32l0xx_hal_msp.o(i.HAL_MspInit)
    HAL_NVIC_EnableIRQ                       0x08000f39   Thumb Code    18  stm32l0xx_hal_cortex.o(i.HAL_NVIC_EnableIRQ)
    HAL_NVIC_SetPriority                     0x08000f51   Thumb Code     8  stm32l0xx_hal_cortex.o(i.HAL_NVIC_SetPriority)
    HAL_RCCEx_PeriphCLKConfig                0x08000f59   Thumb Code   362  stm32l0xx_hal_rcc_ex.o(i.HAL_RCCEx_PeriphCLKConfig)
    HAL_RCC_ClockConfig                      0x080010d1   Thumb Code   386  stm32l0xx_hal_rcc.o(i.HAL_RCC_ClockConfig)
    HAL_RCC_GetPCLK1Freq                     0x0800126d   Thumb Code    20  stm32l0xx_hal_rcc.o(i.HAL_RCC_GetPCLK1Freq)
    HAL_RCC_GetPCLK2Freq                     0x0800128d   Thumb Code    20  stm32l0xx_hal_rcc.o(i.HAL_RCC_GetPCLK2Freq)
    HAL_RCC_GetSysClockFreq                  0x080012ad   Thumb Code   108  stm32l0xx_hal_rcc.o(i.HAL_RCC_GetSysClockFreq)
    HAL_RCC_OscConfig                        0x08001325   Thumb Code  1074  stm32l0xx_hal_rcc.o(i.HAL_RCC_OscConfig)
    HAL_SPI_Init                             0x08001757   Thumb Code   182  stm32l0xx_hal_spi.o(i.HAL_SPI_Init)
    HAL_SPI_MspInit                          0x0800180d   Thumb Code    78  spi.o(i.HAL_SPI_MspInit)
    HAL_SYSTICK_Config                       0x08001869   Thumb Code    38  stm32l0xx_hal_cortex.o(i.HAL_SYSTICK_Config)
    HAL_TIMEx_MasterConfigSynchronization    0x08001899   Thumb Code    84  stm32l0xx_hal_tim_ex.o(i.HAL_TIMEx_MasterConfigSynchronization)
    HAL_TIM_Base_Init                        0x080018f9   Thumb Code    62  stm32l0xx_hal_tim.o(i.HAL_TIM_Base_Init)
    HAL_TIM_Base_MspInit                     0x08001939   Thumb Code    40  tim.o(i.HAL_TIM_Base_MspInit)
    HAL_TIM_ConfigClockSource                0x08001965   Thumb Code   220  stm32l0xx_hal_tim.o(i.HAL_TIM_ConfigClockSource)
    HAL_TIM_IC_CaptureCallback               0x08001a41   Thumb Code     2  stm32l0xx_hal_tim.o(i.HAL_TIM_IC_CaptureCallback)
    HAL_TIM_IRQHandler                       0x08001a43   Thumb Code   294  stm32l0xx_hal_tim.o(i.HAL_TIM_IRQHandler)
    HAL_TIM_MspPostInit                      0x08001b69   Thumb Code    70  tim.o(i.HAL_TIM_MspPostInit)
    HAL_TIM_OC_DelayElapsedCallback          0x08001bb5   Thumb Code     2  stm32l0xx_hal_tim.o(i.HAL_TIM_OC_DelayElapsedCallback)
    HAL_TIM_PWM_ConfigChannel                0x08001bb7   Thumb Code   208  stm32l0xx_hal_tim.o(i.HAL_TIM_PWM_ConfigChannel)
    HAL_TIM_PWM_Init                         0x08001c87   Thumb Code    62  stm32l0xx_hal_tim.o(i.HAL_TIM_PWM_Init)
    HAL_TIM_PWM_MspInit                      0x08001cc5   Thumb Code     2  stm32l0xx_hal_tim.o(i.HAL_TIM_PWM_MspInit)
    HAL_TIM_PWM_PulseFinishedCallback        0x08001cc7   Thumb Code     2  stm32l0xx_hal_tim.o(i.HAL_TIM_PWM_PulseFinishedCallback)
    HAL_TIM_PeriodElapsedCallback            0x08001cc9   Thumb Code     2  stm32l0xx_hal_tim.o(i.HAL_TIM_PeriodElapsedCallback)
    HAL_TIM_TriggerCallback                  0x08001ccb   Thumb Code     2  stm32l0xx_hal_tim.o(i.HAL_TIM_TriggerCallback)
    HAL_UARTEx_RxEventCallback               0x08001ccd   Thumb Code     2  stm32l0xx_hal_uart.o(i.HAL_UARTEx_RxEventCallback)
    HAL_UARTEx_WakeupCallback                0x08001ccf   Thumb Code     2  stm32l0xx_hal_uart_ex.o(i.HAL_UARTEx_WakeupCallback)
    HAL_UART_ErrorCallback                   0x08001cd1   Thumb Code     2  stm32l0xx_hal_uart.o(i.HAL_UART_ErrorCallback)
    HAL_UART_IRQHandler                      0x08001cd5   Thumb Code   664  stm32l0xx_hal_uart.o(i.HAL_UART_IRQHandler)
    HAL_UART_Init                            0x08001f79   Thumb Code   106  stm32l0xx_hal_uart.o(i.HAL_UART_Init)
    HAL_UART_MspInit                         0x08001fe5   Thumb Code   322  usart.o(i.HAL_UART_MspInit)
    HAL_UART_Receive_IT                      0x08002149   Thumb Code   106  stm32l0xx_hal_uart.o(i.HAL_UART_Receive_IT)
    HAL_UART_RxCpltCallback                  0x080021b9   Thumb Code    92  main.o(i.HAL_UART_RxCpltCallback)
    HAL_UART_Transmit                        0x08002241   Thumb Code   210  stm32l0xx_hal_uart.o(i.HAL_UART_Transmit)
    HAL_UART_Transmit_IT                     0x08002315   Thumb Code   126  stm32l0xx_hal_uart.o(i.HAL_UART_Transmit_IT)
    HAL_UART_TxCpltCallback                  0x0800239d   Thumb Code    76  usart.o(i.HAL_UART_TxCpltCallback)
    HardFault_Handler                        0x080023f9   Thumb Code     2  stm32l0xx_it.o(i.HardFault_Handler)
    LPUART1_IRQHandler                       0x080023fd   Thumb Code    10  stm32l0xx_it.o(i.LPUART1_IRQHandler)
    MX_DMA_Init                              0x0800240d   Thumb Code    36  dma.o(i.MX_DMA_Init)
    MX_GPIO_Init                             0x08002435   Thumb Code   106  gpio.o(i.MX_GPIO_Init)
    MX_I2C1_Init                             0x080024ad   Thumb Code    76  i2c.o(i.MX_I2C1_Init)
    MX_IWDG_Init                             0x08002505   Thumb Code    32  iwdg.o(i.MX_IWDG_Init)
    MX_LPUART1_UART_Init                     0x08002531   Thumb Code    46  usart.o(i.MX_LPUART1_UART_Init)
    MX_SPI2_Init                             0x08002569   Thumb Code    56  spi.o(i.MX_SPI2_Init)
    MX_TIM2_Init                             0x080025a9   Thumb Code   188  tim.o(i.MX_TIM2_Init)
    MX_USART1_UART_Init                      0x0800266d   Thumb Code    48  usart.o(i.MX_USART1_UART_Init)
    MX_USART4_UART_Init                      0x080026a5   Thumb Code    48  usart.o(i.MX_USART4_UART_Init)
    NMI_Handler                              0x080026dd   Thumb Code     2  stm32l0xx_it.o(i.NMI_Handler)
    PendSV_Handler                           0x080026df   Thumb Code     2  stm32l0xx_it.o(i.PendSV_Handler)
    SVC_Handler                              0x080026e1   Thumb Code     2  stm32l0xx_it.o(i.SVC_Handler)
    Shell_exec                               0x080026e5   Thumb Code   164  shell.o(i.Shell_exec)
    SysTick_Handler                          0x08002799   Thumb Code     8  stm32l0xx_it.o(i.SysTick_Handler)
    SystemClock_Config                       0x080027a1   Thumb Code   146  main.o(i.SystemClock_Config)
    SystemInit                               0x08002839   Thumb Code     2  system_stm32l0xx.o(i.SystemInit)
    TIM2_IRQHandler                          0x0800283d   Thumb Code    10  stm32l0xx_it.o(i.TIM2_IRQHandler)
    UART_AdvFeatureConfig                    0x080029f1   Thumb Code   202  stm32l0xx_hal_uart.o(i.UART_AdvFeatureConfig)
    UART_CheckIdleState                      0x08002abd   Thumb Code    94  stm32l0xx_hal_uart.o(i.UART_CheckIdleState)
    UART_SetConfig                           0x08002ce5   Thumb Code   492  stm32l0xx_hal_uart.o(i.UART_SetConfig)
    UART_Start_Receive_IT                    0x08002ef9   Thumb Code   166  stm32l0xx_hal_uart.o(i.UART_Start_Receive_IT)
    UART_WaitOnFlagUntilTimeout              0x08003065   Thumb Code   212  stm32l0xx_hal_uart.o(i.UART_WaitOnFlagUntilTimeout)
    USART1_IRQHandler                        0x08003139   Thumb Code    10  stm32l0xx_it.o(i.USART1_IRQHandler)
    USART4_5_IRQHandler                      0x08003149   Thumb Code    10  stm32l0xx_it.o(i.USART4_5_IRQHandler)
    __ARM_common_ll_muluu                    0x08003159   Thumb Code    48  stm32l0xx_hal_rcc.o(i.__ARM_common_ll_muluu)
    __ARM_common_switch8                     0x08003189   Thumb Code    26  tiny_sscanf.o(i.__ARM_common_switch8)
    _sys_exit                                0x080031e9   Thumb Code     2  main.o(i._sys_exit)
    await_uart_tx                            0x080031eb   Thumb Code    12  usart.o(i.await_uart_tx)
    clear_buffer                             0x080031f7   Thumb Code    16  modbus_test.o(i.clear_buffer)
    clear_reset_source                       0x08003209   Thumb Code    14  main.o(i.clear_reset_source)
    cli_help                                 0x0800321d   Thumb Code   162  app_cli.o(i.cli_help)
    cli_led                                  0x0800358d   Thumb Code    10  app_cli.o(i.cli_led)
    cli_led_help                             0x08003599   Thumb Code    10  cli_led.o(i.cli_led_help)
    cli_led_implementation                   0x080035d9   Thumb Code   322  cli_led.o(i.cli_led_implementation)
    cli_reboot                               0x0800374d   Thumb Code     2  app_cli.o(i.cli_reboot)
    cli_run                                  0x08003751   Thumb Code    18  app_cli.o(i.cli_run)
    cli_test                                 0x08003771   Thumb Code   240  app_cli.o(i.cli_test)
    detect_thermokon_sensor                  0x080039a5   Thumb Code   196  modbus_test.o(i.detect_thermokon_sensor)
    flash_readblock                          0x08003bc1   Thumb Code    28  internal_flash.o(i.flash_readblock)
    flash_writeblock                         0x08003be1   Thumb Code    52  internal_flash.o(i.flash_writeblock)
    isCharToSend                             0x08003c19   Thumb Code    12  usart.o(i.isCharToSend)
    main                                     0x08003c29   Thumb Code   110  main.o(i.main)
    main_handle_cli                          0x08003cc5   Thumb Code   128  cli_process.o(i.main_handle_cli)
    modbus_calculateCrc                      0x08003db1   Thumb Code    76  modbus_test.o(i.modbus_calculateCrc)
    modbus_read_registers                    0x08003e05   Thumb Code   278  modbus_test.o(i.modbus_read_registers)
    reflect_byte                             0x08004129   Thumb Code    34  modbus_test.o(i.reflect_byte)
    string_output                            0x0800414d   Thumb Code    80  modbus_test.o(i.string_output)
    tiny_vsnprintf_like                      0x08004249   Thumb Code   338  tiny_vsnprintf.o(i.tiny_vsnprintf_like)
    vComShellTask                            0x080043a5   Thumb Code    38  usartshell.o(i.vComShellTask)
    vcom1shell_PrintMsg                      0x080043d5   Thumb Code    22  usartshell.o(i.vcom1shell_PrintMsg)
    vcom1shell_PutChar                       0x080043eb   Thumb Code    12  usartshell.o(i.vcom1shell_PutChar)
    watchdog_reset_occured                   0x080043f9   Thumb Code    16  main.o(i.watchdog_reset_occured)
    AHBPrescTable                            0x0800440c   Data          16  system_stm32l0xx.o(.constdata)
    PLLMulTable                              0x0800441c   Data           9  system_stm32l0xx.o(.constdata)
    APBPrescTable                            0x08004425   Data           8  system_stm32l0xx.o(.constdata)
    SHELL_MSG_CMDNOTFOUND                    0x08004430   Data           4  shell.o(.constdata)
    SHELL_MSG_PERMISSIONDENIED               0x08004434   Data           4  shell.o(.constdata)
    SHELL_MSG_NOHISTORY                      0x08004438   Data           4  shell.o(.constdata)
    Region$$Table$$Base                      0x08004508   Number         0  anon$$obj.o(Region$$Table)
    Region$$Table$$Limit                     0x08004528   Number         0  anon$$obj.o(Region$$Table)
    cliActive                                0x2000000c   Data           4  usart.o(.data)
    debug_rx_buffer_read_pos                 0x20000010   Data           4  usart.o(.data)
    debug_rx_buffer_write_pos                0x20000014   Data           4  usart.o(.data)
    debug_tx_buffer_read_pos                 0x20000018   Data           4  usart.o(.data)
    debug_tx_buffer_write_pos                0x2000001c   Data           4  usart.o(.data)
    debug_rx_char                            0x20000020   Data           1  usart.o(.data)
    uwTickFreq                               0x20000024   Data           1  stm32l0xx_hal.o(.data)
    uwTickPrio                               0x20000028   Data           4  stm32l0xx_hal.o(.data)
    uwTick                                   0x2000002c   Data           4  stm32l0xx_hal.o(.data)
    SystemCoreClock                          0x20000030   Data           4  system_stm32l0xx.o(.data)
    current_index                            0x20000034   Data           1  modbus_test.o(.data)
    rx_chr                                   0x20000035   Data           1  modbus_test.o(.data)
    a_cmd_registration                       0x20000038   Data         420  app_cli.o(.data)
    hi2c1                                    0x200001e8   Data          76  i2c.o(.bss)
    hiwdg                                    0x20000234   Data          16  iwdg.o(.bss)
    debug_rx_buffer                          0x20000244   Data         100  usart.o(.bss)
    debug_tx_buffer                          0x200002a8   Data        1024  usart.o(.bss)
    hlpuart1                                 0x200006a8   Data         132  usart.o(.bss)
    huart1                                   0x2000072c   Data         132  usart.o(.bss)
    huart4                                   0x200007b0   Data         132  usart.o(.bss)
    hdma_usart4_rx                           0x20000834   Data          72  usart.o(.bss)
    hdma_usart4_tx                           0x2000087c   Data          72  usart.o(.bss)
    hspi2                                    0x200008c4   Data          88  spi.o(.bss)
    htim2                                    0x2000091c   Data          64  tim.o(.bss)
    pFlash                                   0x2000095c   Data          24  stm32l0xx_hal_flash.o(.bss)
    modbus_rx_buffer                         0x20000974   Data          16  modbus_test.o(.bss)
    PrevCmdAv                                0x20000984   Data          32  shell.o(.bss)
    __libspace_start                         0x20000a04   Data          96  libspace.o(.bss)
    __temporary_stack_top$libspace           0x20000a64   Data           0  libspace.o(.bss)



==============================================================================

Memory Map of the image

  Image Entry point : 0x080000c1

  Load Region LR_IROM1 (Base: 0x08000000, Size: 0x00004710, Max: 0x00030000, ABSOLUTE, COMPRESSED[0x0000456c])

    Execution Region ER_IROM1 (Exec base: 0x08000000, Load base: 0x08000000, Size: 0x00004528, Max: 0x00030000, ABSOLUTE)

    Exec Addr    Load Addr    Size         Type   Attr      Idx    E Section Name        Object

    0x08000000   0x08000000   0x000000c0   Data   RO            3    RESET               startup_stm32l071xx.o
    0x080000c0   0x080000c0   0x00000008   Code   RO         4309  * !!!main             c_p.l(__main.o)
    0x080000c8   0x080000c8   0x0000003c   Code   RO         4482    !!!scatter          c_p.l(__scatter.o)
    0x08000104   0x08000104   0x0000001c   Code   RO         4484    !!handler_zi        c_p.l(__scatter_zi.o)
    0x08000120   0x08000120   0x00000002   Code   RO         4353    .ARM.Collect$$libinit$$00000000  c_p.l(libinit.o)
    0x08000122   0x08000122   0x00000000   Code   RO         4367    .ARM.Collect$$libinit$$00000002  c_p.l(libinit2.o)
    0x08000122   0x08000122   0x00000000   Code   RO         4369    .ARM.Collect$$libinit$$00000004  c_p.l(libinit2.o)
    0x08000122   0x08000122   0x00000000   Code   RO         4372    .ARM.Collect$$libinit$$0000000A  c_p.l(libinit2.o)
    0x08000122   0x08000122   0x00000000   Code   RO         4374    .ARM.Collect$$libinit$$0000000C  c_p.l(libinit2.o)
    0x08000122   0x08000122   0x00000000   Code   RO         4376    .ARM.Collect$$libinit$$0000000E  c_p.l(libinit2.o)
    0x08000122   0x08000122   0x00000000   Code   RO         4379    .ARM.Collect$$libinit$$00000011  c_p.l(libinit2.o)
    0x08000122   0x08000122   0x00000000   Code   RO         4381    .ARM.Collect$$libinit$$00000013  c_p.l(libinit2.o)
    0x08000122   0x08000122   0x00000000   Code   RO         4383    .ARM.Collect$$libinit$$00000015  c_p.l(libinit2.o)
    0x08000122   0x08000122   0x00000000   Code   RO         4385    .ARM.Collect$$libinit$$00000017  c_p.l(libinit2.o)
    0x08000122   0x08000122   0x00000000   Code   RO         4387    .ARM.Collect$$libinit$$00000019  c_p.l(libinit2.o)
    0x08000122   0x08000122   0x00000000   Code   RO         4389    .ARM.Collect$$libinit$$0000001B  c_p.l(libinit2.o)
    0x08000122   0x08000122   0x00000000   Code   RO         4391    .ARM.Collect$$libinit$$0000001D  c_p.l(libinit2.o)
    0x08000122   0x08000122   0x00000000   Code   RO         4393    .ARM.Collect$$libinit$$0000001F  c_p.l(libinit2.o)
    0x08000122   0x08000122   0x00000000   Code   RO         4395    .ARM.Collect$$libinit$$00000021  c_p.l(libinit2.o)
    0x08000122   0x08000122   0x00000000   Code   RO         4397    .ARM.Collect$$libinit$$00000023  c_p.l(libinit2.o)
    0x08000122   0x08000122   0x00000000   Code   RO         4399    .ARM.Collect$$libinit$$00000025  c_p.l(libinit2.o)
    0x08000122   0x08000122   0x00000000   Code   RO         4403    .ARM.Collect$$libinit$$0000002C  c_p.l(libinit2.o)
    0x08000122   0x08000122   0x00000000   Code   RO         4405    .ARM.Collect$$libinit$$0000002E  c_p.l(libinit2.o)
    0x08000122   0x08000122   0x00000000   Code   RO         4407    .ARM.Collect$$libinit$$00000030  c_p.l(libinit2.o)
    0x08000122   0x08000122   0x00000000   Code   RO         4409    .ARM.Collect$$libinit$$00000032  c_p.l(libinit2.o)
    0x08000122   0x08000122   0x00000002   Code   RO         4410    .ARM.Collect$$libinit$$00000033  c_p.l(libinit2.o)
    0x08000124   0x08000124   0x00000002   Code   RO         4436    .ARM.Collect$$libshutdown$$00000000  c_p.l(libshutdown.o)
    0x08000126   0x08000126   0x00000000   Code   RO         4463    .ARM.Collect$$libshutdown$$00000002  c_p.l(libshutdown2.o)
    0x08000126   0x08000126   0x00000000   Code   RO         4465    .ARM.Collect$$libshutdown$$00000004  c_p.l(libshutdown2.o)
    0x08000126   0x08000126   0x00000000   Code   RO         4468    .ARM.Collect$$libshutdown$$00000007  c_p.l(libshutdown2.o)
    0x08000126   0x08000126   0x00000000   Code   RO         4471    .ARM.Collect$$libshutdown$$0000000A  c_p.l(libshutdown2.o)
    0x08000126   0x08000126   0x00000000   Code   RO         4473    .ARM.Collect$$libshutdown$$0000000C  c_p.l(libshutdown2.o)
    0x08000126   0x08000126   0x00000000   Code   RO         4476    .ARM.Collect$$libshutdown$$0000000F  c_p.l(libshutdown2.o)
    0x08000126   0x08000126   0x00000002   Code   RO         4477    .ARM.Collect$$libshutdown$$00000010  c_p.l(libshutdown2.o)
    0x08000128   0x08000128   0x00000000   Code   RO         4313    .ARM.Collect$$rtentry$$00000000  c_p.l(__rtentry.o)
    0x08000128   0x08000128   0x00000000   Code   RO         4323    .ARM.Collect$$rtentry$$00000002  c_p.l(__rtentry2.o)
    0x08000128   0x08000128   0x00000006   Code   RO         4335    .ARM.Collect$$rtentry$$00000004  c_p.l(__rtentry4.o)
    0x0800012e   0x0800012e   0x00000000   Code   RO         4325    .ARM.Collect$$rtentry$$00000009  c_p.l(__rtentry2.o)
    0x0800012e   0x0800012e   0x00000004   Code   RO         4326    .ARM.Collect$$rtentry$$0000000A  c_p.l(__rtentry2.o)
    0x08000132   0x08000132   0x00000000   Code   RO         4328    .ARM.Collect$$rtentry$$0000000C  c_p.l(__rtentry2.o)
    0x08000132   0x08000132   0x00000008   Code   RO         4329    .ARM.Collect$$rtentry$$0000000D  c_p.l(__rtentry2.o)
    0x0800013a   0x0800013a   0x00000002   Code   RO         4358    .ARM.Collect$$rtexit$$00000000  c_p.l(rtexit.o)
    0x0800013c   0x0800013c   0x00000000   Code   RO         4412    .ARM.Collect$$rtexit$$00000002  c_p.l(rtexit2.o)
    0x0800013c   0x0800013c   0x00000004   Code   RO         4413    .ARM.Collect$$rtexit$$00000003  c_p.l(rtexit2.o)
    0x08000140   0x08000140   0x00000006   Code   RO         4414    .ARM.Collect$$rtexit$$00000004  c_p.l(rtexit2.o)
    0x08000146   0x08000146   0x00000002   PAD
    0x08000148   0x08000148   0x00000038   Code   RO            4    .text               startup_stm32l071xx.o
    0x08000180   0x08000180   0x00000002   Code   RO         4287    .text               c_p.l(use_no_semi_2.o)
    0x08000182   0x08000182   0x00000102   Code   RO         4291    .text               c_p.l(lludiv.o)
    0x08000284   0x08000284   0x00000022   Code   RO         4293    .text               c_p.l(strcspn.o)
    0x080002a6   0x080002a6   0x00000020   Code   RO         4295    .text               c_p.l(strspn.o)
    0x080002c6   0x080002c6   0x00000002   PAD
    0x080002c8   0x080002c8   0x00000044   Code   RO         4297    .text               c_p.l(strlen.o)
    0x0800030c   0x0800030c   0x00000040   Code   RO         4299    .text               c_p.l(rt_memclr.o)
    0x0800034c   0x0800034c   0x00000088   Code   RO         4301    .text               c_p.l(strcmp.o)
    0x080003d4   0x080003d4   0x0000015a   Code   RO         4303    .text               c_p.l(aeabi_sdiv.o)
    0x0800052e   0x0800052e   0x00000006   Code   RO         4307    .text               c_p.l(heapauxi.o)
    0x08000534   0x08000534   0x00000002   Code   RO         4311    .text               c_p.l(use_no_semi.o)
    0x08000536   0x08000536   0x0000003e   Code   RO         4339    .text               c_p.l(sys_stackheap_outer.o)
    0x08000574   0x08000574   0x00000010   Code   RO         4342    .text               c_p.l(exit.o)
    0x08000584   0x08000584   0x00000008   Code   RO         4354    .text               c_p.l(libspace.o)
    0x0800058c   0x0800058c   0x00000056   Code   RO         4480    .text               c_p.l(__dczerorl2.o)
    0x080005e2   0x080005e2   0x00000002   PAD
    0x080005e4   0x080005e4   0x00000018   Code   RO          621    i.DMA1_Channel2_3_IRQHandler  stm32l0xx_it.o
    0x080005fc   0x080005fc   0x00000050   Code   RO          433    i.Debug_AddToWriteBuffer  usart.o
    0x0800064c   0x0800064c   0x0000000c   Code   RO          434    i.Debug_cliActive   usart.o
    0x08000658   0x08000658   0x00000034   Code   RO          435    i.Debug_disableCli  usart.o
    0x0800068c   0x0800068c   0x00000030   Code   RO          436    i.Debug_getChar     usart.o
    0x080006bc   0x080006bc   0x00000030   Code   RO          437    i.Debug_getRxDataLength  usart.o
    0x080006ec   0x080006ec   0x00000024   Code   RO          438    i.Debug_printf      usart.o
    0x08000710   0x08000710   0x00000004   Code   RO          223    i.Error_Handler     main.o
    0x08000714   0x08000714   0x00000090   Code   RO         1650    i.FLASH_SetErrorCode  stm32l0xx_hal_flash.o
    0x080007a4   0x080007a4   0x00000070   Code   RO         1651    i.FLASH_WaitForLastOperation  stm32l0xx_hal_flash.o
    0x08000814   0x08000814   0x00000044   Code   RO         1919    i.HAL_DMA_Abort     stm32l0xx_hal_dma.o
    0x08000858   0x08000858   0x0000004c   Code   RO         1920    i.HAL_DMA_Abort_IT  stm32l0xx_hal_dma.o
    0x080008a4   0x080008a4   0x000000a8   Code   RO         1924    i.HAL_DMA_IRQHandler  stm32l0xx_hal_dma.o
    0x0800094c   0x0800094c   0x00000090   Code   RO         1925    i.HAL_DMA_Init      stm32l0xx_hal_dma.o
    0x080009dc   0x080009dc   0x00000024   Code   RO         1236    i.HAL_Delay         stm32l0xx_hal.o
    0x08000a00   0x08000a00   0x00000014   Code   RO         1754    i.HAL_FLASHEx_DATAEEPROM_Lock  stm32l0xx_hal_flash_ex.o
    0x08000a14   0x08000a14   0x00000054   Code   RO         1755    i.HAL_FLASHEx_DATAEEPROM_Program  stm32l0xx_hal_flash_ex.o
    0x08000a68   0x08000a68   0x00000034   Code   RO         1756    i.HAL_FLASHEx_DATAEEPROM_Unlock  stm32l0xx_hal_flash_ex.o
    0x08000a9c   0x08000a9c   0x000001bc   Code   RO         1859    i.HAL_GPIO_Init     stm32l0xx_hal_gpio.o
    0x08000c58   0x08000c58   0x00000010   Code   RO         1862    i.HAL_GPIO_TogglePin  stm32l0xx_hal_gpio.o
    0x08000c68   0x08000c68   0x0000000c   Code   RO         1863    i.HAL_GPIO_WritePin  stm32l0xx_hal_gpio.o
    0x08000c74   0x08000c74   0x0000000c   Code   RO         1240    i.HAL_GetTick       stm32l0xx_hal.o
    0x08000c80   0x08000c80   0x0000004a   Code   RO         1177    i.HAL_I2CEx_ConfigAnalogFilter  stm32l0xx_hal_i2c_ex.o
    0x08000cca   0x08000cca   0x00000048   Code   RO         1178    i.HAL_I2CEx_ConfigDigitalFilter  stm32l0xx_hal_i2c_ex.o
    0x08000d12   0x08000d12   0x00000002   PAD
    0x08000d14   0x08000d14   0x000000b4   Code   RO          730    i.HAL_I2C_Init      stm32l0xx_hal_i2c.o
    0x08000dc8   0x08000dc8   0x00000060   Code   RO          370    i.HAL_I2C_MspInit   i2c.o
    0x08000e28   0x08000e28   0x0000006c   Code   RO         2361    i.HAL_IWDG_Init     stm32l0xx_hal_iwdg.o
    0x08000e94   0x08000e94   0x00000010   Code   RO         2362    i.HAL_IWDG_Refresh  stm32l0xx_hal_iwdg.o
    0x08000ea4   0x08000ea4   0x00000010   Code   RO         1246    i.HAL_IncTick       stm32l0xx_hal.o
    0x08000eb4   0x08000eb4   0x00000028   Code   RO         1247    i.HAL_Init          stm32l0xx_hal.o
    0x08000edc   0x08000edc   0x00000044   Code   RO         1248    i.HAL_InitTick      stm32l0xx_hal.o
    0x08000f20   0x08000f20   0x00000018   Code   RO          699    i.HAL_MspInit       stm32l0xx_hal_msp.o
    0x08000f38   0x08000f38   0x00000018   Code   RO         2186    i.HAL_NVIC_EnableIRQ  stm32l0xx_hal_cortex.o
    0x08000f50   0x08000f50   0x00000008   Code   RO         2190    i.HAL_NVIC_SetPriority  stm32l0xx_hal_cortex.o
    0x08000f58   0x08000f58   0x00000178   Code   RO         1534    i.HAL_RCCEx_PeriphCLKConfig  stm32l0xx_hal_rcc_ex.o
    0x080010d0   0x080010d0   0x0000019c   Code   RO         1434    i.HAL_RCC_ClockConfig  stm32l0xx_hal_rcc.o
    0x0800126c   0x0800126c   0x00000020   Code   RO         1440    i.HAL_RCC_GetPCLK1Freq  stm32l0xx_hal_rcc.o
    0x0800128c   0x0800128c   0x00000020   Code   RO         1441    i.HAL_RCC_GetPCLK2Freq  stm32l0xx_hal_rcc.o
    0x080012ac   0x080012ac   0x00000078   Code   RO         1442    i.HAL_RCC_GetSysClockFreq  stm32l0xx_hal_rcc.o
    0x08001324   0x08001324   0x00000432   Code   RO         1445    i.HAL_RCC_OscConfig  stm32l0xx_hal_rcc.o
    0x08001756   0x08001756   0x000000b6   Code   RO         2866    i.HAL_SPI_Init      stm32l0xx_hal_spi.o
    0x0800180c   0x0800180c   0x0000005c   Code   RO          540    i.HAL_SPI_MspInit   spi.o
    0x08001868   0x08001868   0x00000030   Code   RO         2194    i.HAL_SYSTICK_Config  stm32l0xx_hal_cortex.o
    0x08001898   0x08001898   0x00000060   Code   RO         3870    i.HAL_TIMEx_MasterConfigSynchronization  stm32l0xx_hal_tim_ex.o
    0x080018f8   0x080018f8   0x0000003e   Code   RO         3175    i.HAL_TIM_Base_Init  stm32l0xx_hal_tim.o
    0x08001936   0x08001936   0x00000002   PAD
    0x08001938   0x08001938   0x0000002c   Code   RO          578    i.HAL_TIM_Base_MspInit  tim.o
    0x08001964   0x08001964   0x000000dc   Code   RO         3184    i.HAL_TIM_ConfigClockSource  stm32l0xx_hal_tim.o
    0x08001a40   0x08001a40   0x00000002   Code   RO         3209    i.HAL_TIM_IC_CaptureCallback  stm32l0xx_hal_tim.o
    0x08001a42   0x08001a42   0x00000126   Code   RO         3223    i.HAL_TIM_IRQHandler  stm32l0xx_hal_tim.o
    0x08001b68   0x08001b68   0x0000004c   Code   RO          579    i.HAL_TIM_MspPostInit  tim.o
    0x08001bb4   0x08001bb4   0x00000002   Code   RO         3226    i.HAL_TIM_OC_DelayElapsedCallback  stm32l0xx_hal_tim.o
    0x08001bb6   0x08001bb6   0x000000d0   Code   RO         3247    i.HAL_TIM_PWM_ConfigChannel  stm32l0xx_hal_tim.o
    0x08001c86   0x08001c86   0x0000003e   Code   RO         3250    i.HAL_TIM_PWM_Init  stm32l0xx_hal_tim.o
    0x08001cc4   0x08001cc4   0x00000002   Code   RO         3252    i.HAL_TIM_PWM_MspInit  stm32l0xx_hal_tim.o
    0x08001cc6   0x08001cc6   0x00000002   Code   RO         3253    i.HAL_TIM_PWM_PulseFinishedCallback  stm32l0xx_hal_tim.o
    0x08001cc8   0x08001cc8   0x00000002   Code   RO         3261    i.HAL_TIM_PeriodElapsedCallback  stm32l0xx_hal_tim.o
    0x08001cca   0x08001cca   0x00000002   Code   RO         3266    i.HAL_TIM_TriggerCallback  stm32l0xx_hal_tim.o
    0x08001ccc   0x08001ccc   0x00000002   Code   RO         2396    i.HAL_UARTEx_RxEventCallback  stm32l0xx_hal_uart.o
    0x08001cce   0x08001cce   0x00000002   Code   RO         2785    i.HAL_UARTEx_WakeupCallback  stm32l0xx_hal_uart_ex.o
    0x08001cd0   0x08001cd0   0x00000002   Code   RO         2412    i.HAL_UART_ErrorCallback  stm32l0xx_hal_uart.o
    0x08001cd2   0x08001cd2   0x00000002   PAD
    0x08001cd4   0x08001cd4   0x000002a4   Code   RO         2415    i.HAL_UART_IRQHandler  stm32l0xx_hal_uart.o
    0x08001f78   0x08001f78   0x0000006a   Code   RO         2416    i.HAL_UART_Init     stm32l0xx_hal_uart.o
    0x08001fe2   0x08001fe2   0x00000002   PAD
    0x08001fe4   0x08001fe4   0x00000164   Code   RO          440    i.HAL_UART_MspInit  usart.o
    0x08002148   0x08002148   0x00000070   Code   RO         2421    i.HAL_UART_Receive_IT  stm32l0xx_hal_uart.o
    0x080021b8   0x080021b8   0x00000088   Code   RO          224    i.HAL_UART_RxCpltCallback  main.o
    0x08002240   0x08002240   0x000000d2   Code   RO         2425    i.HAL_UART_Transmit  stm32l0xx_hal_uart.o
    0x08002312   0x08002312   0x00000002   PAD
    0x08002314   0x08002314   0x00000088   Code   RO         2427    i.HAL_UART_Transmit_IT  stm32l0xx_hal_uart.o
    0x0800239c   0x0800239c   0x0000005c   Code   RO          441    i.HAL_UART_TxCpltCallback  usart.o
    0x080023f8   0x080023f8   0x00000002   Code   RO          622    i.HardFault_Handler  stm32l0xx_it.o
    0x080023fa   0x080023fa   0x00000002   PAD
    0x080023fc   0x080023fc   0x00000010   Code   RO          623    i.LPUART1_IRQHandler  stm32l0xx_it.o
    0x0800240c   0x0800240c   0x00000028   Code   RO          349    i.MX_DMA_Init       dma.o
    0x08002434   0x08002434   0x00000078   Code   RO          329    i.MX_GPIO_Init      gpio.o
    0x080024ac   0x080024ac   0x00000058   Code   RO          371    i.MX_I2C1_Init      i2c.o
    0x08002504   0x08002504   0x0000002c   Code   RO          407    i.MX_IWDG_Init      iwdg.o
    0x08002530   0x08002530   0x00000038   Code   RO          442    i.MX_LPUART1_UART_Init  usart.o
    0x08002568   0x08002568   0x00000040   Code   RO          541    i.MX_SPI2_Init      spi.o
    0x080025a8   0x080025a8   0x000000c4   Code   RO          580    i.MX_TIM2_Init      tim.o
    0x0800266c   0x0800266c   0x00000038   Code   RO          443    i.MX_USART1_UART_Init  usart.o
    0x080026a4   0x080026a4   0x00000038   Code   RO          444    i.MX_USART4_UART_Init  usart.o
    0x080026dc   0x080026dc   0x00000002   Code   RO          624    i.NMI_Handler       stm32l0xx_it.o
    0x080026de   0x080026de   0x00000002   Code   RO          625    i.PendSV_Handler    stm32l0xx_it.o
    0x080026e0   0x080026e0   0x00000002   Code   RO          626    i.SVC_Handler       stm32l0xx_it.o
    0x080026e2   0x080026e2   0x00000002   PAD
    0x080026e4   0x080026e4   0x000000b4   Code   RO         4201    i.Shell_exec        shell.o
    0x08002798   0x08002798   0x00000008   Code   RO          627    i.SysTick_Handler   stm32l0xx_it.o
    0x080027a0   0x080027a0   0x00000098   Code   RO          225    i.SystemClock_Config  main.o
    0x08002838   0x08002838   0x00000002   Code   RO         3897    i.SystemInit        system_stm32l0xx.o
    0x0800283a   0x0800283a   0x00000002   PAD
    0x0800283c   0x0800283c   0x00000010   Code   RO          628    i.TIM2_IRQHandler   stm32l0xx_it.o
    0x0800284c   0x0800284c   0x00000068   Code   RO         3268    i.TIM_Base_SetConfig  stm32l0xx_hal_tim.o
    0x080028b4   0x080028b4   0x00000016   Code   RO         3279    i.TIM_ETR_SetConfig  stm32l0xx_hal_tim.o
    0x080028ca   0x080028ca   0x00000010   Code   RO         3280    i.TIM_ITRx_SetConfig  stm32l0xx_hal_tim.o
    0x080028da   0x080028da   0x00000030   Code   RO         3281    i.TIM_OC1_SetConfig  stm32l0xx_hal_tim.o
    0x0800290a   0x0800290a   0x00000032   Code   RO         3282    i.TIM_OC2_SetConfig  stm32l0xx_hal_tim.o
    0x0800293c   0x0800293c   0x00000036   Code   RO         3283    i.TIM_OC3_SetConfig  stm32l0xx_hal_tim.o
    0x08002972   0x08002972   0x00000036   Code   RO         3284    i.TIM_OC4_SetConfig  stm32l0xx_hal_tim.o
    0x080029a8   0x080029a8   0x00000022   Code   RO         3286    i.TIM_TI1_ConfigInputStage  stm32l0xx_hal_tim.o
    0x080029ca   0x080029ca   0x00000026   Code   RO         3288    i.TIM_TI2_ConfigInputStage  stm32l0xx_hal_tim.o
    0x080029f0   0x080029f0   0x000000ca   Code   RO         2430    i.UART_AdvFeatureConfig  stm32l0xx_hal_uart.o
    0x08002aba   0x08002aba   0x00000002   PAD
    0x08002abc   0x08002abc   0x00000064   Code   RO         2431    i.UART_CheckIdleState  stm32l0xx_hal_uart.o
    0x08002b20   0x08002b20   0x00000014   Code   RO         2432    i.UART_DMAAbortOnError  stm32l0xx_hal_uart.o
    0x08002b34   0x08002b34   0x0000005e   Code   RO         2442    i.UART_EndRxTransfer  stm32l0xx_hal_uart.o
    0x08002b92   0x08002b92   0x000000a8   Code   RO         2444    i.UART_RxISR_16BIT  stm32l0xx_hal_uart.o
    0x08002c3a   0x08002c3a   0x000000a8   Code   RO         2445    i.UART_RxISR_8BIT   stm32l0xx_hal_uart.o
    0x08002ce2   0x08002ce2   0x00000002   PAD
    0x08002ce4   0x08002ce4   0x00000214   Code   RO         2446    i.UART_SetConfig    stm32l0xx_hal_uart.o
    0x08002ef8   0x08002ef8   0x000000b4   Code   RO         2448    i.UART_Start_Receive_IT  stm32l0xx_hal_uart.o
    0x08002fac   0x08002fac   0x0000005e   Code   RO         2449    i.UART_TxISR_16BIT  stm32l0xx_hal_uart.o
    0x0800300a   0x0800300a   0x0000005a   Code   RO         2450    i.UART_TxISR_8BIT   stm32l0xx_hal_uart.o
    0x08003064   0x08003064   0x000000d4   Code   RO         2451    i.UART_WaitOnFlagUntilTimeout  stm32l0xx_hal_uart.o
    0x08003138   0x08003138   0x00000010   Code   RO          629    i.USART1_IRQHandler  stm32l0xx_it.o
    0x08003148   0x08003148   0x00000010   Code   RO          630    i.USART4_5_IRQHandler  stm32l0xx_it.o
    0x08003158   0x08003158   0x00000030   Code   RO         1519    i.__ARM_common_ll_muluu  stm32l0xx_hal_rcc.o
    0x08003188   0x08003188   0x0000001a   Code   RO          171    i.__ARM_common_switch8  tiny_sscanf.o
    0x080031a2   0x080031a2   0x00000002   PAD
    0x080031a4   0x080031a4   0x00000044   Code   RO         2196    i.__NVIC_SetPriority  stm32l0xx_hal_cortex.o
    0x080031e8   0x080031e8   0x00000002   Code   RO          226    i._sys_exit         main.o
    0x080031ea   0x080031ea   0x0000000c   Code   RO          445    i.await_uart_tx     usart.o
    0x080031f6   0x080031f6   0x00000010   Code   RO         3930    i.clear_buffer      modbus_test.o
    0x08003206   0x08003206   0x00000002   PAD
    0x08003208   0x08003208   0x00000014   Code   RO          227    i.clear_reset_source  main.o
    0x0800321c   0x0800321c   0x00000370   Code   RO         4056    i.cli_help          app_cli.o
    0x0800358c   0x0800358c   0x0000000a   Code   RO         4057    i.cli_led           app_cli.o
    0x08003596   0x08003596   0x00000002   PAD
    0x08003598   0x08003598   0x00000040   Code   RO         4174    i.cli_led_help      cli_led.o
    0x080035d8   0x080035d8   0x00000174   Code   RO         4175    i.cli_led_implementation  cli_led.o
    0x0800374c   0x0800374c   0x00000002   Code   RO         4059    i.cli_reboot        app_cli.o
    0x0800374e   0x0800374e   0x00000002   PAD
    0x08003750   0x08003750   0x00000020   Code   RO         4061    i.cli_run           app_cli.o
    0x08003770   0x08003770   0x00000234   Code   RO         4062    i.cli_test          app_cli.o
    0x080039a4   0x080039a4   0x00000118   Code   RO         3931    i.detect_thermokon_sensor  modbus_test.o
    0x08003abc   0x08003abc   0x00000104   Code   RO          195    i.ee_number         tiny_vsnprintf.o
    0x08003bc0   0x08003bc0   0x00000020   Code   RO           13    i.flash_readblock   internal_flash.o
    0x08003be0   0x08003be0   0x00000038   Code   RO           14    i.flash_writeblock  internal_flash.o
    0x08003c18   0x08003c18   0x00000010   Code   RO          446    i.isCharToSend      usart.o
    0x08003c28   0x08003c28   0x0000009c   Code   RO          230    i.main              main.o
    0x08003cc4   0x08003cc4   0x000000ec   Code   RO         4019    i.main_handle_cli   cli_process.o
    0x08003db0   0x08003db0   0x00000054   Code   RO         3932    i.modbus_calculateCrc  modbus_test.o
    0x08003e04   0x08003e04   0x0000018c   Code   RO         3933    i.modbus_read_registers  modbus_test.o
    0x08003f90   0x08003f90   0x000000ec   Code   RO         4202    i.prvCmdIdentify_Tokenize  shell.o
    0x0800407c   0x0800407c   0x000000ac   Code   RO         4237    i.prvGetCmdLine     usartshell.o
    0x08004128   0x08004128   0x00000022   Code   RO         3934    i.reflect_byte      modbus_test.o
    0x0800414a   0x0800414a   0x00000002   PAD
    0x0800414c   0x0800414c   0x000000fc   Code   RO         3935    i.string_output     modbus_test.o
    0x08004248   0x08004248   0x0000015c   Code   RO          196    i.tiny_vsnprintf_like  tiny_vsnprintf.o
    0x080043a4   0x080043a4   0x00000030   Code   RO         4238    i.vComShellTask     usartshell.o
    0x080043d4   0x080043d4   0x00000016   Code   RO         4239    i.vcom1shell_PrintMsg  usartshell.o
    0x080043ea   0x080043ea   0x0000000c   Code   RO         4240    i.vcom1shell_PutChar  usartshell.o
    0x080043f6   0x080043f6   0x00000002   PAD
    0x080043f8   0x080043f8   0x00000014   Code   RO          231    i.watchdog_reset_occured  main.o
    0x0800440c   0x0800440c   0x00000019   Data   RO         3898    .constdata          system_stm32l0xx.o
    0x08004425   0x08004425   0x00000008   Data   RO         3899    .constdata          system_stm32l0xx.o
    0x0800442d   0x0800442d   0x00000003   PAD
    0x08004430   0x08004430   0x0000000c   Data   RO         4204    .constdata          shell.o
    0x0800443c   0x0800443c   0x0000004d   Data   RO          197    .conststring        tiny_vsnprintf.o
    0x08004489   0x08004489   0x00000003   PAD
    0x0800448c   0x0800448c   0x00000021   Data   RO         4074    .conststring        app_cli.o
    0x080044ad   0x080044ad   0x00000003   PAD
    0x080044b0   0x080044b0   0x00000057   Data   RO         4208    .conststring        shell.o
    0x08004507   0x08004507   0x00000001   PAD
    0x08004508   0x08004508   0x00000020   Data   RO         4478    Region$$Table       anon$$obj.o


    Execution Region RW_IRAM1 (Exec base: 0x20000000, Load base: 0x08004528, Size: 0x00001068, Max: 0x00005000, ABSOLUTE, COMPRESSED[0x00000044])

    Exec Addr    Load Addr    Size         Type   Attr      Idx    E Section Name        Object

    0x20000000   COMPRESSED   0x00000008   Data   RW          198    .data               tiny_vsnprintf.o
    0x20000008   COMPRESSED   0x00000004   Data   RW          232    .data               main.o
    0x2000000c   COMPRESSED   0x00000014   Data   RW          448    .data               usart.o
    0x20000020   COMPRESSED   0x00000001   Data   RW          449    .data               usart.o
    0x20000021   COMPRESSED   0x00000003   PAD
    0x20000024   COMPRESSED   0x0000000c   Data   RW         1258    .data               stm32l0xx_hal.o
    0x20000030   COMPRESSED   0x00000004   Data   RW         3900    .data               system_stm32l0xx.o
    0x20000034   COMPRESSED   0x00000002   Data   RW         3937    .data               modbus_test.o
    0x20000036   COMPRESSED   0x00000002   PAD
    0x20000038   COMPRESSED   0x000001a4   Data   RW         4076    .data               app_cli.o
    0x200001dc   COMPRESSED   0x00000008   Data   RW         4212    .data               shell.o
    0x200001e4   COMPRESSED   0x00000003   Data   RW         4242    .data               usartshell.o
    0x200001e7   COMPRESSED   0x00000001   PAD
    0x200001e8        -       0x0000004c   Zero   RW          372    .bss                i2c.o
    0x20000234        -       0x00000010   Zero   RW          408    .bss                iwdg.o
    0x20000244        -       0x00000680   Zero   RW          447    .bss                usart.o
    0x200008c4        -       0x00000058   Zero   RW          542    .bss                spi.o
    0x2000091c        -       0x00000040   Zero   RW          581    .bss                tim.o
    0x2000095c        -       0x00000018   Zero   RW         1663    .bss                stm32l0xx_hal_flash.o
    0x20000974        -       0x00000010   Zero   RW         3936    .bss                modbus_test.o
    0x20000984        -       0x00000020   Zero   RW         4203    .bss                shell.o
    0x200009a4        -       0x0000005d   Zero   RW         4241    .bss                usartshell.o
    0x20000a01   COMPRESSED   0x00000003   PAD
    0x20000a04        -       0x00000060   Zero   RW         4355    .bss                c_p.l(libspace.o)
    0x20000a64   COMPRESSED   0x00000004   PAD
    0x20000a68        -       0x00000200   Zero   RW            2    HEAP                startup_stm32l071xx.o
    0x20000c68        -       0x00000400   Zero   RW            1    STACK               startup_stm32l071xx.o


==============================================================================

Image component sizes


      Code (inc. data)   RO Data    RW Data    ZI Data      Debug   Object Name

      1488       1056         33        420          0       6529   app_cli.o
       436        104          0          0          0       1776   cli_led.o
       236        108          0          0          0       1822   cli_process.o
        40          4          0          0          0        690   dma.o
       120         14          0          0          0        859   gpio.o
       184         26          0          0         76       1505   i2c.o
        88          8          0          0          0     352205   internal_flash.o
        44         12          0          0         16        623   iwdg.o
       490        106          0          4          0       6556   main.o
      1062        398          0          2         16       5010   modbus_test.o
       416         32         99          8         32       4134   shell.o
       156         22          0          0         88       1485   spi.o
        56         26        192          0       1536        616   startup_stm32l071xx.o
       172         28          0         12          0       8953   stm32l0xx_hal.o
       148         24          0          0          0      11993   stm32l0xx_hal_cortex.o
       456         12          0          0          0       3187   stm32l0xx_hal_dma.o
       256         16          0          0         24       4078   stm32l0xx_hal_flash.o
       156         26          0          0          0       2187   stm32l0xx_hal_flash_ex.o
       472         32          0          0          0       2609   stm32l0xx_hal_gpio.o
       180          4          0          0          0       2783   stm32l0xx_hal_i2c.o
       146          0          0          0          0       1827   stm32l0xx_hal_i2c_ex.o
       124         20          0          0          0       1787   stm32l0xx_hal_iwdg.o
        24          4          0          0          0        414   stm32l0xx_hal_msp.o
      1718         90          0          0          0       5548   stm32l0xx_hal_rcc.o
       376         14          0          0          0       1392   stm32l0xx_hal_rcc_ex.o
       182          0          0          0          0       1139   stm32l0xx_hal_spi.o
      1278         14          0          0          0      13295   stm32l0xx_hal_tim.o
        96         12          0          0          0       1164   stm32l0xx_hal_tim_ex.o
      3104        112          0          0          0      20338   stm32l0xx_hal_uart.o
         2          0          0          0          0        948   stm32l0xx_hal_uart_ex.o
       104         32          0          0          0       4213   stm32l0xx_it.o
         2          0         33          4          0       1099   system_stm32l0xx.o
       316         18          0          0         64       2180   tim.o
        26          0          0          0          0        664   tiny_sscanf.o
       608         16         77          8          0       4270   tiny_vsnprintf.o
       920        124          0         21       1664       7845   usart.o
       254         32          0          3         93       3561   usartshell.o

    ----------------------------------------------------------------------
     15968       2546        476        488       3612     491284   Object Totals
         0          0         32          0          0          0   (incl. Generated)
        32          0         10          6          3          0   (incl. Padding)

    ----------------------------------------------------------------------

      Code (inc. data)   RO Data    RW Data    ZI Data      Debug   Library Member Name

        86          0          0          0          0          0   __dczerorl2.o
         8          0          0          0          0         68   __main.o
         0          0          0          0          0          0   __rtentry.o
        12          0          0          0          0          0   __rtentry2.o
         6          0          0          0          0          0   __rtentry4.o
        60          8          0          0          0          0   __scatter.o
        28          0          0          0          0          0   __scatter_zi.o
       346          0          0          0          0         92   aeabi_sdiv.o
        16          0          0          0          0         68   exit.o
         6          0          0          0          0        136   heapauxi.o
         2          0          0          0          0          0   libinit.o
         2          0          0          0          0          0   libinit2.o
         2          0          0          0          0          0   libshutdown.o
         2          0          0          0          0          0   libshutdown2.o
         8          4          0          0         96         68   libspace.o
       258          0          0          0          0         88   lludiv.o
        64          0          0          0          0        108   rt_memclr.o
         2          0          0          0          0          0   rtexit.o
        10          0          0          0          0          0   rtexit2.o
       136          4          0          0          0         72   strcmp.o
        34          0          0          0          0         72   strcspn.o
        68          6          0          0          0         72   strlen.o
        32          0          0          0          0         72   strspn.o
        62          0          0          0          0         80   sys_stackheap_outer.o
         2          0          0          0          0         68   use_no_semi.o
         2          0          0          0          0         68   use_no_semi_2.o

    ----------------------------------------------------------------------
      1260         22          0          0        100       1132   Library Totals
         6          0          0          0          4          0   (incl. Padding)

    ----------------------------------------------------------------------

      Code (inc. data)   RO Data    RW Data    ZI Data      Debug   Library Name

      1254         22          0          0         96       1132   c_p.l

    ----------------------------------------------------------------------
      1260         22          0          0        100       1132   Library Totals

    ----------------------------------------------------------------------

==============================================================================


      Code (inc. data)   RO Data    RW Data    ZI Data      Debug   

     17228       2568        476        488       3712     486064   Grand Totals
     17228       2568        476         68       3712     486064   ELF Image Totals (compressed)
     17228       2568        476         68          0          0   ROM Totals

==============================================================================

    Total RO  Size (Code + RO Data)                17704 (  17.29kB)
    Total RW  Size (RW Data + ZI Data)              4200 (   4.10kB)
    Total ROM Size (Code + RO Data + RW Data)      17772 (  17.36kB)

==============================================================================

